:020000040800F2
:1000000000180020E50B0008B50B0008BB0B00082A
:1000100000000000000000000000000000000000E0
:10002000000000000000000000000000C10B0008FC
:100030000000000000000000CB0B0008D50B0008FA
:10004000650C0008650C0008650C0008650C0008CC
:10005000650C0008650C0008650C0008650C0008BC
:10006000650C0008650C0008650C0008650C0008AC
:10007000650C0008650C0008650C0008650C00089C
:10008000650C00080000000000000000650C00087E
:1000900000000000650C0008650C0008650C0008F5
:1000A00000000000650C0008650C0008650C0008E5
:1000B000650C000800000000650C0008650C0008D5
:1000C00010B5064C2378002B07D1054B002B02D02E
:1000D000044800E000BF0123237010BD0C00002085
:1000E00000000000602C0008044B10B5002B03D06A
:1000F0000349044800E000BF10BDC04600000000F6
:1001000010000020602C0008002243088B4274D3AA
:1001100003098B425FD3030A8B4244D3030B8B4208
:1001200028D3030C8B420DD3FF22090212BA030C11
:100130008B4202D31212090265D0030B8B4219D3F2
:1001400000E0090AC30B8B4201D3CB03C01A524112
:10015000830B8B4201D38B03C01A5241430B8B425A
:1001600001D34B03C01A5241030B8B4201D30B0343
:10017000C01A5241C30A8B4201D3CB02C01A52416A
:10018000830A8B4201D38B02C01A5241430A8B422D
:1001900001D34B02C01A5241030A8B4201D30B0216
:1001A000C01A5241CDD2C3098B4201D3CB01C01A30
:1001B000524183098B4201D38B01C01A524143093A
:1001C0008B4201D34B01C01A524103098B4201D328
:1001D0000B01C01A5241C3088B4201D3CB00C01A95
:1001E000524183088B4201D38B00C01A524143080D
:1001F0008B4201D34B00C01A5241411A00D2014632
:10020000524110467047FFE701B5002000F006F8A4
:1002100002BDC0460029F7D076E770477047C04658
:1002200080B582B000AF78600A00BB1C1A80054B15
:100230007A689A60034BBA1C12889A81C046BD4600
:1002400002B080BD2800002080B582B000AF02005F
:10025000BB1D1A80034BBA1D12889A80C046BD464A
:1002600002B080BD2800002080B500AF024B012203
:100270001A70C046BD4680BD2800002080B500AF82
:10028000074B9868064B9B899BB20022190000F02F
:1002900093FF034B00221A70C046BD4680BDC04686
:1002A0002800002080B500AF3D4B1B785BB2012BCE
:1002B00015D13B4B98683A4B9B899BB201221900A0
:1002C00000F07AFF364B00225A80354B1B785BB228
:1002D000DBB20133DBB25AB2314B1A701FE0304B44
:1002E0001B785BB2022B1AD12E4B1B7801221340D4
:1002F000DBB2002B13D02A4B5B889BB201339AB23E
:10030000274B5A80264B5B889AB2254B9B889BB221
:100310009A4204D3224B00225A80FFF7AFFF204BB2
:100320001B785BB2032B15D11D4B9A681C4B9B8924
:100330009BB21900100000F05CFF194B00225A809C
:10034000174B1B785BB2DBB20133DBB25AB2144BF2
:100350001A7021E0124B1B785BB2042B1CD1114B9D
:100360001B7801221340DBB2002B15D00C4B5B88AD
:100370009BB201339BB20A4A191C5180084A9288E9
:1003800092B2934208D3064B1B785BB2DBB2013BBF
:10039000DBB25AB2024B1A70C046BD4680BDC046A1
:1003A00028000020D004002080B588B000AF00F005
:1003B0005FFC00F031F800F0A3F900F07BF900F0E9
:1003C0008DF800F0CBF800F007F900F043F9902326
:1003D000DB0501220821180000F0EEFE9023DB056A
:1003E00002211800FFF71CFF4B20FFF72DFFFFF73E
:1003F0003BFF012000F0A0FC064B1A7801210A43C4
:100400001A70FFF74FFF034B1A7801218A431A70C5
:10041000EFE7C046D004002090B599B000AF2C247F
:100420003B19180034231A00002102F011FC1C2390
:10043000FB18180010231A00002102F009FC3B1DD4
:10044000180018231A00002102F002FC21007B187A
:1004500022221A607B180122DA607B1801221A62BC
:100460007B1810221A617B1800225A627B18180030
:1004700001F032F9031E01D000F014FA1C217B18A0
:1004800007221A607B1803225A607B1800229A60A8
:100490007B180022DA607B180121180001F0A2FC11
:1004A000031E01D000F0FEF93B1D0B4A1A603B1DF4
:1004B00000229A603B1D0022DA603B1D00225A6137
:1004C0003B1D180001F0FAFD031E01D000F0EAF90F
:1004D000C046BD4619B090BD2100020080B500AFF6
:1004E0001B4B1C4A1A601A4B1B4A5A60184B0022BD
:1004F0009A60174B0122DA60154B00221A61144BE7
:1005000000225A61124B00229A61114B0022DA61DB
:100510000F4B00221A620E4B180000F085FE031EDE
:1005200001D000F0BFF90A4B0021180000F012FFC3
:10053000031E01D000F0B6F9054B0021180000F0B1
:1005400055FF031E01D000F0ADF9C046BD4680BD89
:1005500038000020005400400E09002080B500AF94
:100560001B4B1C4A1A601A4B822252005A60184BCD
:1005700000229A60164BE022D200DA60144B00226F
:100580001A61134B01225A61114B802292009A6129
:100590000F4B3822DA610E4B00221A620C4B0022FC
:1005A0005A620B4B00229A62094B0722DA62084B0F
:1005B00000221A63064B00225A63054B180001F013
:1005C0006BFE031E01D000F06DF9C046BD4680BD34
:1005D0008C0000200030014080B500AF1B4B1C4A4E
:1005E0001A601A4B822252005A60184B00229A60FD
:1005F000164BE022D200DA60144B02221A61134B30
:1006000000225A61114B802292009A610F4B2822DE
:10061000DA610E4B00221A620C4B00225A620B4B1D
:1006200000229A62094B0722DA62084B00221A6301
:10063000064B08225A63054B180001F02DFE031EDD
:1006400001D000F02FF9C046BD4680BDF00000206B
:100650000038004080B500AF144B154A1A60134BA8
:10066000962212025A60114B00229A600F4B002210
:10067000DA600E4B00221A610C4B0C225A610B4BB4
:1006800000229A61094B0022DA61084B00221A62AB
:10069000064B00225A62054B180001F0B5FE031EFE
:1006A00001D000F0FFF8C046BD4680BD54010020D7
:1006B0000038014080B500AF0F4B104A1A600E4B56
:1006C00008225A600C4B02229A600B4B02221A61DC
:1006D000094B00229A61084B0022DA61064B002286
:1006E0001A62054B180000F0CDFE031E01D000F089
:1006F000D9F8C046BD4680BDDC010020005C00404A
:1007000090B58BB000AF14243B19180014231A00C5
:10071000002102F09DFA5C4B5A695B4B8021090372
:100720000A435A61584B5A6980231B0313403B61AB
:100730003B69554B5A69544B8021C9030A435A619E
:10074000514B5A698023DB031340FB60FB684E4B1F
:100750005A694D4B802189020A435A614A4B5A69B2
:1007600080239B021340BB60BB68474B5A69464BD2
:100770008021C9020A435A61434B5A698023DB0234
:1007800013407B607B6841499023DB050022180001
:1007900000F012FD9023DB0501221021180000F06B
:1007A0000BFD3B493B4B0022180000F005FD3B19B7
:1007B000E02212021A603B1900225A603B19012202
:1007C0009A603B19344A1900100000F08DFB3B1968
:1007D0002E4A1A603B1901225A603B1900229A6086
:1007E0003B190022DA603A199023DB05110018004A
:1007F00000F07AFB3B1910221A603B1901225A6063
:100800003B1900229A603B190322DA603A199023BF
:10081000DB051100180000F067FB3B191C4A1A6049
:100820003B1901225A603B1900229A603B190022B1
:10083000DA603B19174A1900100000F055FB3B190C
:10084000164A1A603B1900225A603B1901229A602D
:100850003B19104A1900100000F046FB21007B18DC
:10086000802212011A607B1800225A607B18012234
:100870009A607B180A4A1900100000F035FBC04648
:10088000BD460BB090BDC046001002400F81000075
:100890000F28000000040048000800483013000042
:1008A0000014004880B500AF72B6C046FEE70000F5
:1008B00080B582B000AF0F4B9A690E4B01210A43FD
:1008C0009A610C4B9B69012213407B607B68094B4A
:1008D000DA69084B802149050A43DA61054BDA6978
:1008E00080235B0513403B603B68C046BD4602B0B9
:1008F00080BDC0460010024090B58BB000AF78605C
:1009000014243B19180014231A00002102F0A0F946
:100910007B681B681C4A934231D11C4B5A691B4BA4
:100920008021C9020A435A61184B5A698023DB02AD
:1009300013403B613B6921007B18C0221A607B1881
:1009400012225A607B1800229A607B180322DA6018
:100950007B1801221A617B180D4A1900100000F063
:10096000C3FA0A4BDA69094B802189030A43DA6129
:10097000064BDA6980239B031340FB60FB68C0468B
:10098000BD460BB090BDC046005400400010024070
:100990000004004890B58DB000AF78601C243B196E
:1009A000180014231A00002102F052F97B681B681A
:1009B000454A934233D1454B9A69444B80214901C2
:1009C0000A439A61414B9A6980235B011340BB61E2
:1009D000BB693E4B5A693D4B802189020A435A61EB
:1009E0003A4B5A6980239B0213407B617B6921004B
:1009F0007B18E0221A607B1802225A607B180022C2
:100A00009A607B180322DA607B1800221A617A1838
:100A10009023DB051100180000F066FA4FE07B68B8
:100A20001B682B4A93424AD1284BDA69274B802115
:100A3000C9010A43DA61254BDA698023DB011340DF
:100A40003B613B69214B5A69204B8021C9020A4313
:100A50005A611E4B5A698023DB021340FB60FB681E
:100A60001C217B188022D2001A600C003B19022244
:100A70005A603B1900229A603B190322DA603B1945
:100A800005221A613B19134A1900100000F02CFAD4
:100A900021007B18C02212021A607B1802225A60C1
:100AA0007B1800229A607B180322DA607B180022F0
:100AB0001A617B18074A1900100000F015FAC046A9
:100AC000BD460DB090BDC046003001400010024050
:100AD000003800400004004890B58BB000AF78604B
:100AE00014243B19180014231A00002102F0B0F856
:100AF0007B681B681D4A934233D11D4B9A691C4B7E
:100B00008021C9010A439A61194B9A698023DB014C
:100B100013403B613B69164B5A69154B8021890292
:100B20000A435A61124B5A6980239B021340FB60AF
:100B3000FB683B19C022D2001A6021007B180222F8
:100B40005A607B1800229A607B180322DA607B18B7
:100B500001221A617A189023DB051100180000F0B9
:100B6000C3F9C046BD460BB090BDC0460038014039
:100B70000010024080B584B000AF78607B681B68CD
:100B80000A4A93420DD10A4BDA69094B80210904C4
:100B90000A43DA61064BDA6980231B041340FB60C9
:100BA000FB68C046BD4604B080BDC046005C004046
:100BB0000010024080B500AFFEE780B500AFFEE751
:100BC00080B500AFC046BD4680BD80B500AFC04611
:100BD000BD4680BD80B500AF00F092F8C046BD466E
:100BE00080BD00001348854600F03DF812480168BA
:100BF000090E124A914205D111481249016012486A
:100C00001249016012481349134A002302E0D458E4
:100C1000C4500433C4188C42F9D3104A104C00233A
:100C200001E013600432A242FBD301F0EDFFFFF7B5
:100C3000BBFBFEE700180020040000001F000000BE
:100C400018100240010000000000014000000000F8
:100C5000000000200C000020B82C00080C00002030
:100C6000D8040020FEE780B500AFC046BD4680BD79
:100C700080B500AF074B1A68064B10210A431A6073
:100C8000032000F009F8FFF713FE00231800BD460B
:100C900080BDC0460020024090B583B000AF7860B0
:100CA000144B1C68144B1B781900FA239800FFF7AB
:100CB0002BFA030019002000FFF726FA03001800A2
:100CC00000F005F9031E01D001230FE07B68032B20
:100CD0000BD8796801235B420022180000F0E2F88B
:100CE000064B7A681A60002300E001231800BD4615
:100CF00003B090BD00000020080000200400002088
:100D000080B500AF054B1B781A00054B1B68D21845
:100D1000034B1A60C046BD4680BDC0460800002097
:100D2000D404002080B500AF024B1B681800BD46FC
:100D300080BDC046D404002080B584B000AF786088
:100D4000FFF7F0FF0300BB607B68FB60FB680133CB
:100D500005D00A4B1B781A00FB689B18FB60C04645
:100D6000FFF7E0FF0200BB68D31AFA689A42F7D88F
:100D7000C046C046BD4604B080BDC0460800002045
:100D800090B583B000AF02003960FB1D1A70FB1DE7
:100D90001B787F2B28D82F4AFB1D1B785BB29B0842
:100DA000C0339B009B58FA1D1278110003220A40A1
:100DB000D200FF2191400A00D2431A4011003B6843
:100DC0009B01FF221A40FB1D1B78180003230340E0
:100DD000DB009A401F48FB1D1B785BB29B080A434F
:100DE000C0339B001A5031E01B4AFB1D1B781900D1
:100DF0000F230B40083B9B0806339B00D31804339A
:100E00001B68FA1D1278110003220A40D200FF214C
:100E100091400A00D2431A4011003B689B01FF2217
:100E20001A40FB1D1B78180003230340DB009A4087
:100E30000948FB1D1B781C000F232340083B9B081F
:100E40000A4306339B00C31804331A60C046BD46EC
:100E500003B090BD00E100E000ED00E080B582B09D
:100E600000AF78607B685A1E80235B049A4201D3EE
:100E7000012310E00A4B7A68013A5A6001235B4271
:100E800003211800FFF77CFF054B00229A60044BFA
:100E900007221A6000231800BD4602B080BDC0467C
:100EA00010E000E080B584B000AFB9607A600F2137
:100EB0007B18021C1A70BA687B181B785BB2110091
:100EC0001800FFF75DFFC046BD4604B080BD80B589
:100ED00082B000AF78607B681800FFF7BFFF0300A7
:100EE0001800BD4602B080BD80B586B000AF786006
:100EF000396000237B6149E13B681B6801217A6905
:100F000091400A001340FB60FB68002B00D13AE1DE
:100F10003B685B6803221340012B05D03B685B688C
:100F200003221340022B30D17B689B683B617B69B5
:100F30005B0003229A401300DA433B6913403B6194
:100F40003B68DA687B695B009A4013003A69134397
:100F50003B617B683A699A607B685B683B61012210
:100F60007B699A401300DA433B6913403B613B685D
:100F70005B681B0901221A407B699A4013003A6999
:100F800013433B617B683A695A603B685B680322A4
:100F90001340032B17D07B68DB683B617B695B00E8
:100FA00003229A401300DA433B6913403B613B68DC
:100FB0009A687B695B009A4013003A6913433B616E
:100FC0007B683A69DA603B685B6803221340022B56
:100FD00023D17B69DA087B6808329200D3583B61E1
:100FE0007B69072213409B000F229A401300DA43CB
:100FF0003B6913403B613B681A697B6907210B40E1
:101000009B009A4013003A6913433B617B69DA08FD
:101010007B68083292003969D1507B681B683B615C
:101020007B695B0003229A401300DA433B6913405B
:101030003B613B685B6803221A407B695B009A4016
:1010400013003A6913433B617B683A691A603B6855
:101050005A68C0239B02134000D194E0514B9A6917
:10106000504B01210A439A614E4B9B690122134068
:10107000BB60BB684C4A7B699B0802339B009B5852
:101080003B617B69032213409B000F229A401300AF
:10109000DA433B6913403B617A689023DB059A424F
:1010A0000DD07B68414A934207D07B68404A934207
:1010B00001D1022304E0052302E0012300E0002324
:1010C0007A6903210A40920093403A6913433B61D5
:1010D00035497B699B0802339B003A695A50354B6E
:1010E0009B683B61FB68DA433B6913403B613B68AB
:1010F0005A6880235B03134003D03A69FB681343AB
:101100003B612C4B3A699A602A4BDB683B61FB6878
:10111000DA433B6913403B613B685A6880239B0379
:10112000134003D03A69FB6813433B61214B3A6992
:10113000DA60204B5B683B61FB68DA433B69134034
:101140003B613B685A6880239B02134003D03A6995
:10115000FB6813433B61174B3A695A60154B1B6898
:101160003B61FB68DA433B6913403B613B685A686B
:1011700080235B02134003D03A69FB6813433B6151
:101180000C4B3A691A607B6901337B613B681A68D2
:101190007B69DA40131E00D0AEE6C046C046BD46AD
:1011A00006B080BD0010024000000140000400486D
:1011B000000800480004014080B582B000AF7860AC
:1011C00008001100BB1C021C1A807B1C0A1C1A7030
:1011D0007B1C1B78002B04D0BB1C1A887B689A618F
:1011E00003E0BB1C1A887B689A62C046BD4602B009
:1011F00080BD80B584B000AF78600A00BB1C1A8047
:101200007B685B69FB60BB1C1B88FA6813401A048F
:10121000FB68DB43B91C09880B401A437B689A6161
:10122000C046BD4604B080BD80B582B000AF7860D6
:101230007B68002B01D1012382E07B6841229B5C0B
:10124000DBB2002B07D17B684022002199547B68D8
:101250001800FFF751FB7B684122242199547B68D9
:101260001B681A687B681B6801218A431A607B68C7
:101270005A687B681B6834490A401A617B681B689E
:101280009A687B681B6831490A409A607B68DB6812
:10129000012B08D17B689A687B681B688021090252
:1012A0000A439A6007E07B689A687B681B68842120
:1012B00009020A439A607B68DB68022B04D17B68D1
:1012C0001B68802212015A607B681B685A687B6821
:1012D0001B681F490A435A607B681B68DA687B6891
:1012E0001B681A490A40DA607B681A697B685B6987
:1012F0001A4311007B689B691A027B681B680A43CA
:10130000DA607B68D9697B681A6A7B681B680A4364
:101310001A607B681B681A687B681B6801210A4396
:101320001A607B6800225A647B684122202199540C
:101330007B6800221A637B684222002199540023B3
:101340001800BD4602B080BDFFFFFFF0FF7FFFFF2A
:101350000080000280B582B000AF786039607B68A1
:1013600041229B5CDBB2202B38D17B6840229B5C06
:10137000012B01D1022332E07B68402201219954E4
:101380007B684122242199547B681B681A687B681A
:101390001B6801218A431A607B681B681A687B6896
:1013A0001B6811490A401A607B681B6819687B68D2
:1013B0001B683A680A431A607B681B681A687B6876
:1013C0001B6801210A431A607B684122202199543D
:1013D0007B68402200219954002300E0022318007A
:1013E000BD4602B080BDC046FFEFFFFF80B584B0B0
:1013F00000AF786039607B6841229B5CDBB2202BB8
:1014000039D17B6840229B5C012B01D1022333E060
:101410007B684022012199547B6841222421995400
:101420007B681B681A687B681B6801218A431A6005
:101430007B681B681B68FB60FB68114A1340FB60FC
:101440003B681B02FA681343FB607B681B68FA6801
:101450001A607B681B681A687B681B6801210A4355
:101460001A607B684122202199547B684022002128
:101470009954002300E002231800BD4604B080BD4B
:10148000FFF0FFFFF0B58BB006AF78607B68002BF4
:1014900001D10123F0E07B68794A9B5CDBB2002B31
:1014A00008D17A68AA239B000021D1547B681800D8
:1014B000FFF760FB7B68724A032199547B681B68C5
:1014C000180001F05FFB0F23FB1800221A7049E09F
:1014D0000F203B181B7879685A1C13009B009B183F
:1014E000DB00CB18013301221A703B181B78796896
:1014F0005A1C13009B009B18DB003A1812785A54B0
:101500003B181B7879685A1C13009B009B18DB0062
:10151000CB18033300221A703B181A78796813002D
:101520009B009B18DB00CB18383300221A603B1855
:101530001A78796813009B009B18DB00CB183C33AA
:1015400000221A603B181A78796813009B009B18D8
:10155000DB00CB18403300221A603B181A783B1886
:1015600001321A700F217B181A787B685B689A42E7
:10157000AED37B1800221A7056E00F243B191A785C
:1015800078686A23FF33190013009B009B18DB0067
:10159000C3185B1800221A703B191A787868B423B4
:1015A000590013009B009B18DB00C3185B183A1905
:1015B00012781A703B191A7878686C23FF33190077
:1015C00013009B009B18DB00C3185B1800221A70E5
:1015D0003B191A787868BC23590013009B009B18AC
:1015E000DB00C3185B1800221A603B191A78786870
:1015F000BE23590013009B009B18DB00C3185B1827
:1016000000221A603B191A787868C0235900130029
:101610009B009B18DB00C3185B1800221A603B1963
:101620001A783B1901321A700F23FB181A787B685D
:101630005B689A42A1D37B6818687B686A46110090
:101640001A00103270CA70C130CA30C159689A6825
:10165000DB6801F0B1FA7B682422002199547B6891
:10166000074A012199547B68DB69012B03D17B6810
:10167000180000F007F800231800BD4605B0F0BDC3
:10168000A902000080B584B000AF78607B681B6859
:10169000FB607A68BA239B000121D1507A68B82395
:1016A0009B000021D154FB6854229B5A9BB201221B
:1016B000134399B2FB6854229952FB6854229B5AF7
:1016C0009BB20222134399B2FB6854229952002321
:1016D0001800BD4604B080BD80B588B000AF78600A
:1016E0007B68002B02D1012300F076FB7B681B682E
:1016F0000122134000D18EE0C54B5B680C221340E1
:10170000042B0ED0C24B5B680C221340082B17D160
:10171000BF4B5A68C0235B021A4080235B029A4287
:101720000ED1BB4B1A6880239B02134000D171E09D
:101730007B685B68002B00D06CE0012300F04CFB61
:101740007B685B68012B07D1B14B1A68B04B8021D5
:1017500049020A431A602FE07B685B68002B0CD1BA
:10176000AB4B1A68AA4BAB490A401A60A84B1A68DF
:10177000A74BA9490A401A601EE07B685B68052BED
:101780000ED1A34B1A68A24B8021C9020A431A60EA
:101790009F4B1A689E4B802149020A431A600BE056
:1017A0009B4B1A689A4B9B490A401A60984B1A68DF
:1017B000974B99490A401A607B685B68002B14D0EC
:1017C000FFF7B0FA0300BB6108E0FFF7ABFA0200D5
:1017D000BB69D31A642B01D90323FDE28C4B1A6831
:1017E00080239B021340F0D015E0FFF79BFA030023
:1017F000BB6108E0FFF796FA0200BB69D31A642BBD
:1018000001D90323E8E2824B1A6880239B0213402C
:10181000F0D100E0C0467B681B680222134000D173
:101820006CE07B4B5B680C2213400ED0784B5B68FE
:101830000C221340082B1FD1754B5A68C0235B0242
:101840001A4080231B029A4216D1714B1B68022258
:10185000134005D07B68DB68012B01D00123BBE27C
:101860006B4B1B68F822934319007B681B69DA00F5
:10187000674B0A431A6041E07B68DB68002B24D089
:10188000634B1A68624B01210A431A60FFF74AFA58
:101890000300BB6108E0FFF745FA0200BB69D31AF9
:1018A000022B01D9032397E2594B1B6802221340F4
:1018B000F1D0574B1B68F822934319007B681B69D2
:1018C000DA00534B0A431A6018E0514B1A68504B28
:1018D00001218A431A60FFF725FA0300BB6108E083
:1018E000FFF720FA0200BB69D31A022B01D90323A8
:1018F00072E2474B1B6802221340F1D17B681B68E0
:101900000822134036D07B68DB69002B19D0404B8E
:101910005A6A3F4B01210A435A62FFF703FA030058
:10192000BB6108E0FFF7FEF90200BB69D31A022B86
:1019300001D9032350E2364B5B6A02221340F1D0F7
:1019400018E0334B5A6A324B01218A435A62FFF73F
:10195000E9F90300BB6108E0FFF7E4F90200BB69A5
:10196000D31A022B01D9032336E2294B5B6A0222E8
:101970001340F1D17B681B680422134000D1B5E00D
:101980001F203B1800221A70214BDA6980235B0567
:10199000134010D11E4BDA691D4B802149050A43C3
:1019A000DA611B4BDA6980235B051340FB60FB683F
:1019B0003B1801221A70194B1A6880235B001340F0
:1019C0001AD1164B1A68154B802149000A431A6038
:1019D000FFF7A8F90300BB6108E0FFF7A3F90200D5
:1019E000BB69D31A642B01D90323F5E10B4B1A68A9
:1019F00080235B001340F0D07B689B68012B0FD1E4
:101A0000034B1A6A024B01210A431A6236E0C046B0
:101A100000100240FFFFFEFFFFFFFBFF00700040D1
:101A20007B689B68002B0CD1CA4B1A6AC94B0121F9
:101A30008A431A62C74B1A6AC64B04218A431A6248
:101A40001CE07B689B68052B0CD1C24B1A6AC14B0A
:101A500004210A431A62BF4B1A6ABE4B01210A4392
:101A60001A620BE0BB4B1A6ABA4B01218A431A6215
:101A7000B84B1A6AB74B04218A431A627B689B6889
:101A8000002B14D0FFF74EF90300BB6109E0FFF70C
:101A900049F90200BB69D31AAF4A934201D9032323
:101AA0009AE1AC4B1B6A02221340F0D013E0FFF71F
:101AB00039F90300BB6109E0FFF734F90200BB69A3
:101AC000D31AA54A934201D9032385E1A14B1B6A8E
:101AD00002221340F0D11F23FB181B78012B05D1E4
:101AE0009C4BDA699B4B9D490A40DA617B681B6815
:101AF0001022134063D07B685B69012B2AD1954B80
:101B00005A6B944B04210A435A63924B5A6B914B84
:101B100001210A435A63FFF705F90300BB6108E09E
:101B2000FFF700F90200BB69D31A022B01D9032386
:101B300052E1884B5B6B02221340F1D0854B5B6B0B
:101B4000F822934319007B689B69DA00814B0A43B2
:101B50005A6334E07B685B69053311D17D4B5A6B66
:101B60007C4B04218A435A637A4B5B6BF822934384
:101B700019007B689B69DA00764B0A435A631EE0C2
:101B8000744B5A6B734B04210A435A63714B5A6B63
:101B9000704B01218A435A63FFF7C4F80300BB610D
:101BA00008E0FFF7BFF80200BB69D31A022B01D986
:101BB000032311E1674B5B6B02221340F1D17B6879
:101BC0001B68202213405CD0624B5B680C221340E0
:101BD0000C2B0ED05F4B5B680C221340082B14D1EA
:101BE0005C4B5A68C0235B021A40C0235B029A42D6
:101BF0000BD1584B5A6B80239B02134040D07B681B
:101C00001B6A012B3CD00123E6E07B681B6A002B9A
:101C10001BD0504B5A6B4F4B802149020A435A63E9
:101C2000FFF780F80300BB6108E0FFF77BF80200D4
:101C3000BB69D31A022B01D90323CDE0454B5A6B64
:101C400080239B021340F0D01BE0424B5A6B414B68
:101C500043490A405A63FFF765F80300BB6108E097
:101C6000FFF760F80200BB69D31A022B01D90323E6
:101C7000B2E0384B5A6B80239B021340F0D100E056
:101C8000C0467B685B6A002B00D1A4E0314B5B68E7
:101C90000C221340082B00D178E07B685B6A022B92
:101CA0004CD12C4B1A682B4B2E490A401A60FFF777
:101CB00039F80300BB6108E0FFF734F80200BB69A4
:101CC000D31A022B01D9032386E0224B1A68802302
:101CD0009B041340F0D11F4BDB6A0F229343190082
:101CE0007B681A6B1B4B0A43DA621A4B5B681E4A0D
:101CF000134019007B68DA6A7B689B6A1A43154BAC
:101D00000A435A60134B1A68124B802149040A4354
:101D10001A60FFF707F80300BB6108E0FFF702F85D
:101D20000200BB69D31A022B01D9032354E0094BEB
:101D30001A6880239B041340F0D04CE0054B1A68CE
:101D4000044B08490A401A60FEF7ECFF0300BB6130
:101D500015E0C0460010024088130000FFFFFFEFAF
:101D6000FFFFFEFFFFFFFFFEFF7FC2FFFEF7DAFF70
:101D70000200BB69D31A022B01D903232CE0184BB4
:101D80001A6880239B041340F0D124E07B685B6ACF
:101D9000012B01D101231FE0114B5B687B61104BCC
:101DA000DB6A3B617A69C0235B021A407B689B6AED
:101DB0009A420ED13B690F221A407B681B6B9A42F4
:101DC00007D17A69F0239B031A407B68DB6A9A4249
:101DD00001D0012300E000231800BD4608B080BDFB
:101DE0000010024080B584B000AF786039607B6835
:101DF000002B01D10123BFE0614B1B68012213407E
:101E00003A689A4211D95E4B1B680122934319002C
:101E10005B4B3A680A431A60594B1B680122134016
:101E20003A689A4201D00123A6E07B681B6802222F
:101E3000134015D07B681B680422134006D0514B19
:101E40005A68504BE021C9000A435A604D4B5B6809
:101E5000F022934319007B689A684A4B0A435A6000
:101E60007B681B68012213404CD07B685B68012BA8
:101E700007D1444B1A6880239B02134020D10123D1
:101E80007AE07B685B68022B07D13E4B1A6880239F
:101E90009B04134014D101236EE07B685B68032B25
:101EA00007D1384B5A6B80239B02134008D1012382
:101EB00062E0344B1B680222134001D101235BE036
:101EC000304B5B680322934319007B685A682D4BA3
:101ED0000A435A60FEF726FF0300FB6009E0FEF7A5
:101EE00021FF0200FB68D31A274A934201D903233A
:101EF00042E0244B5B680C221A407B685B689B00C5
:101F00009A42ECD11E4B1B68012213403A689A4258
:101F100011D21B4B1B68012293431900184B3A68DE
:101F20000A431A60164B1B68012213403A689A4212
:101F300001D0012320E07B681B680422134009D0F4
:101F4000104B5B68114A134019007B68DA680D4B2F
:101F50000A435A6000F020F801000A4B5B681B0935
:101F60000F2213400A4AD35C0A00DA40094B1A6078
:101F70000320FEF791FE00231800BD4604B080BD8B
:101F8000002002400010024088130000FFF8FFFF0D
:101F9000782C00080000002080B586B000AF002338
:101FA000FB600023BB6000237B6100237B60002378
:101FB0003B612D4B5B68FB60FB680C2213400C2BD4
:101FC00046D048D8042B02D0082B03D043E0274B3F
:101FD0003B6143E0FB689B0C0F221340244AD35C17
:101FE0007B60214BDB6A0F221340224AD35CBB602B
:101FF000FA68C0235B021A4080235B029A4209D12F
:10200000B9681A48FEF780F803001A007B6853434A
:102010007B611AE0FA68C0235B021A40C0235B02AE
:102020009A4209D1B9681448FEF76EF803001A0005
:102030007B6853437B6108E0B9680C48FEF764F89D
:1020400003001A007B6853437B617B693B6105E0B9
:10205000094B3B6102E0054B3B61C0463B69180000
:10206000BD4606B080BDC0460010024000127A0096
:10207000902C0008A02C0008006CDC0280B500AF9A
:10208000024B1B681800BD4680BDC0460000002002
:1020900080B500AFFFF7F2FF0100064B5B681B0A3B
:1020A00007221340044AD35CD9400B001800BD46F8
:1020B00080BDC04600100240882C000880B586B064
:1020C00000AF786000233B610023FB607B681A68E7
:1020D00080235B02134000D18EE017203B180022C2
:1020E0001A70674BDA6980235B05134010D1644B8B
:1020F000DA69634B802149050A43DA61604BDA698A
:1021000080235B051340BB60BB683B1801221A703B
:102110005C4B1A6880235B0013401AD1594B1A6834
:10212000584B802149000A431A60FEF7FBFD03006B
:102130003B6108E0FEF7F6FD02003B69D31A642B11
:1021400001D9032397E04F4B1A6880235B001340AB
:10215000F0D04B4B1A6AC0239B001340FB60FB6816
:10216000002B34D07B685A68C0239B001340FA6868
:102170009A422CD0424B1B6A434A1340FB60404BAF
:102180001A6A3F4B802149020A431A623C4B1A6A81
:102190003B4B3E490A401A62394BFA681A62FB68A7
:1021A0000122134013D0FEF7BDFD03003B6109E09F
:1021B000FEF7B8FD02003B69D31A354A934201D9B4
:1021C000032358E02E4B1B6A02221340F0D02C4B05
:1021D0001B6A2D4A134019007B685A68284B0A4332
:1021E0001A621723FB181B78012B05D1244BDA69DF
:1021F000234B28490A40DA617B681B68012213409F
:1022000009D01F4B1B6B0322934319007B689A680C
:102210001B4B0A431A637B681B682022134009D0BA
:10222000174B1B6B1022934319007B68DA68144B21
:102230000A431A637B681A6880239B02134009D003
:102240000F4B1B6B8022934319007B685A690C4B20
:102250000A431A637B681A688023DB00134009D0A5
:10226000074B1B6B4022934319007B681A69044B90
:102270000A431A6300231800BD4606B080BDC0465D
:102280000010024000700040FFFCFFFFFFFFFEFF58
:1022900088130000FFFFFFEF80B584B000AF7860C7
:1022A0007B68002B01D10123A8E07B685B6A002BCF
:1022B00009D17B685A6882235B009A4209D07B6807
:1022C0000022DA6105E07B6800221A617B68002247
:1022D0005A617B6800229A627B685D229B5CDBB25C
:1022E000002B07D17B685C22002199547B68180081
:1022F000FEF750FB7B685D22022199547B681B68C6
:102300001A687B681B6840218A431A607B68DA6818
:10231000E023DB009A4202D90023FB6002E0802325
:102320005B01FB607B68DA68F0231B019A4208D0EE
:102330007B68DA68E023DB009A4202D07B680022E7
:102340009A627B685A6882235B001A407B689968AE
:1023500084231B020B401A437B681B6902210B403C
:102360001A437B685B6901210B401A437B689969BA
:1023700080239B000B401A437B68DB6938210B40AC
:102380001A437B681B6A80210B401A4311007B684B
:102390009A6A80239B011A407B681B680A431A6073
:1023A0007B689B691B0C04221A407B685B6A1021C6
:1023B0000B401A437B685B6B08210B401A437B6818
:1023C000D968F0231B010B401A431100FA688023DF
:1023D0005B011A407B681B680A435A607B681B6874
:1023E000DA697B681B6807490A40DA617B6800226A
:1023F0001A667B685D220121995400231800BD46AE
:1024000004B080BDFFF7FFFF80B582B000AF7860F9
:102410007B68002B01D1012344E07B68DB6F002B3C
:1024200007D17B687822002199547B681800FEF759
:1024300053FB7B682422DA677B681B681A687B6819
:102440001B6801218A431A607B68180000F030F88D
:102450000300012B01D1012324E07B685B6A002B80
:1024600003D07B68180000F063F97B681B685A682A
:102470007B681B680D490A405A607B681B689A6834
:102480007B681B682A218A439A607B681B681A68EC
:102490007B681B6801210A431A607B68180000F002
:1024A000FBF903001800BD4602B080BDFFB7FFFF77
:1024B00080B588B000AF78601E23FB1800221A7028
:1024C0007B689A687B681B691A437B685B691A435F
:1024D0007B68DB6913437B617B681B681B688D4AE3
:1024E000134019007B681B687A690A431A607B688D
:1024F0001B685B68884A134019007B68DA687B6850
:102500001B680A435A607B689B697B617B681B6A16
:102510007A6913437B617B681B689B687F4A134021
:1025200019007B681B687A690A439A607B681B689C
:102530007B4A934227D17B4B1B6B03221340032B17
:102540000DD01BD8022B14D018D8002B02D0012B91
:102550000AD013E01F23FB1800221A7021E01F236A
:10256000FB1802221A701CE01F23FB1804221A70A9
:1025700017E01F23FB1808221A7012E01F23FB1814
:1025800010221A700DE07B681B68674A934204D1E1
:102590001F23FB1800221A7003E01F23FB181022D0
:1025A0001A707B68DA6980231B029A425CD11F2370
:1025B000FB181B78082B15D018DC042B0DD015DC6C
:1025C000002B02D0022B05D010E0FFF761FD0300C5
:1025D000BB6112E0554BBB610FE0FFF7DDFC030070
:1025E000BB610AE080231B02BB6106E00023BB61E4
:1025F0001E23FB1801221A70C046BB69002B00D1B4
:102600007AE0BB695A007B685B685B08D2187B681C
:102610005B6819001000FDF777FD03003B613B6923
:102620000F2B1CD93A6980235B029A4217D23B696F
:102630009AB20E203B180F218A431A803B695B082F
:102640009BB20722134099B23B183A1812880A43EA
:102650001A807B681B683A181288DA604CE01E23E7
:10266000FB1801221A7047E01F23FB181B78082B68
:1026700015D018DC042B0DD015DC002B02D0022B5A
:1026800005D010E0FFF704FD0300BB6112E0274B0B
:10269000BB610FE0FFF780FC0300BB610AE0802311
:1026A0001B02BB6106E00023BB611E23FB18012255
:1026B0001A70C046BB69002B1ED07B685B685A0845
:1026C000BB69D2187B685B6819001000FDF71CFD20
:1026D00003003B613B690F2B0AD93A6980235B02F7
:1026E0009A4205D23B699AB27B681B68DA6003E0C4
:1026F0001E23FB1801221A707B6800229A667B68F1
:102700000022DA661E23FB181B781800BD4608B0AD
:1027100080BDC046F369FFEFFFCFFFFFFFF4FFFF6F
:1027200000380140001002400044004000127A00CE
:1027300080B582B000AF78607B685B6A012213408D
:102740000BD07B681B685B684A4A134019007B68A2
:102750009A6A7B681B680A435A607B685B6A02223C
:1027600013400BD07B681B685B68434A1340190019
:102770007B68DA6A7B681B680A435A607B685B6A1D
:10278000042213400BD07B681B685B683B4A1340F4
:1027900019007B681A6B7B681B680A435A607B6868
:1027A0005B6A082213400BD07B681B685B68344A65
:1027B000134019007B685A6B7B681B680A435A6098
:1027C0007B685B6A102213400BD07B681B689B6898
:1027D0002C4A134019007B689A6B7B681B680A437C
:1027E0009A607B685B6A202213400BD07B681B6871
:1027F0009B68254A134019007B68DA6B7B681B686D
:102800000A439A607B685B6A402213401DD07B6854
:102810001B685B681D4A134019007B681A6C7B6853
:102820001B680A435A607B681A6C80235B039A42D8
:102830000BD17B681B685B68154A134019007B68E5
:102840005A6C7B681B680A435A607B685B6A80220B
:1028500013400BD07B681B685B680E4A134019005D
:102860007B689A6C7B681B680A435A60C046BD4609
:1028700002B080BDFFFFFDFFFFFFFEFFFFFFFBFF7C
:10288000FF7FFFFFFFEFFFFFFFDFFFFFFFFFEFFF18
:10289000FFFF9FFFFFFFF7FF80B592B002AF7860A8
:1028A0007B68842200219950FEF73CFA0300FB6309
:1028B0007B681B681B6808221340082B2CD1FB6B1C
:1028C000802291037868464A0092002200F08CF83A
:1028D000031E21D0EFF310837B627B6ABB6301236D
:1028E000BB62BB6A83F31088C0467B681B681A68AA
:1028F0007B681B6880218A431A60BB6BFB62FB6AA2
:1029000083F31088C0467B682022DA677B687822D0
:102910000021995403235FE07B681B681B68042235
:102920001340042B46D1FB6B8022D10378682C4ADC
:102930000092002200F058F8031E3BD0EFF3108302
:10294000FB60FB687B6301233B613B6983F3108879
:10295000C0467B681B681A687B681B6821490A406F
:102960001A607B6B7B617B6983F31088C046EFF351
:102970001083BB61BB693B630123FB61FB6983F38C
:102980001088C0467B681B689A687B681B680121B9
:102990008A439A603B6B3B623B6A83F31088C04674
:1029A0007B688022202199507B68782200219954ED
:1029B000032311E07B682022DA677B6880222021D4
:1029C00099507B6800221A667B6800225A667B68F1
:1029D00078220021995400231800BD4610B080BD14
:1029E000FFFFFF01DFFEFFFF80B584B000AFF8609E
:1029F000B9603B60FB1D1A704BE0BB69013348D0E6
:102A0000FEF790F902003B68D31ABA699A4202D3E2
:102A1000BB69002B01D103234BE0FB681B681B68DB
:102A20000422134035D0FB681B68DB690822134081
:102A3000082B11D1FB681B6808221A62FB6818007A
:102A400000F03CF8FB68842208219950FB6878224A
:102A50000021995401232CE0FB681B68DA6980236C
:102A60001B011A4080231B019A4212D1FB681B688C
:102A7000802212011A62FB68180000F01FF8FB6840
:102A8000842220219950FB68782200219954032345
:102A90000FE0FB681B68DB69BA681340BA68D31A99
:102AA0005A425341DBB21A00FB1D1B789A42A4D054
:102AB00000231800BD4604B080BD000080B58EB074
:102AC00000AF7860EFF310837B617B697B63012348
:102AD000BB61BB6983F31088C0467B681B681A68BA
:102AE0007B681B6826490A401A607B6BFB61FB69A7
:102AF00083F31088C046EFF310833B623B6A3B636D
:102B000001237B627B6A83F31088C0467B681B6865
:102B10009A687B681B6801218A439A603B6BBB62A1
:102B2000BB6A83F31088C0467B681B6E012B18D1EB
:102B3000EFF31083BB60BB68FB620123FB60FB68A3
:102B400083F31088C0467B681B681A687B681B6823
:102B500010218A431A60FB6A3B613B6983F310884A
:102B6000C0467B688022202199507B6800221A662B
:102B70007B6800229A66C046BD460EB080BDC04646
:102B8000DFFEFFFF80B584B000AF7860094BFB60CB
:102B90007B6840229B5A9BB2FA6892B2D24392B2AF
:102BA000134099B27B684022995200231800BD4619
:102BB00004B080BD80BF000084B090B583B000AF8A
:102BC00078600420102400190824A446BC44604402
:102BD0000160426083607B684022012199527B68DA
:102BE0004022002199527B684422002199527B683F
:102BF00050220021995200231800BD4603B090BC1A
:102C000008BC04B01847000070B500260C4D0D4CF0
:102C1000641BA410A64209D1002600F021F80A4D39
:102C20000A4C641BA410A64205D170BDB300EB583A
:102C300098470136EEE7B300EB5898470136F2E7C4
:102C4000B02C0008B02C0008B02C0008B42C0008F0
:102C500003008218934200D1704719700133F9E7DD
:102C6000F8B5C046F8BC08BC9E467047F8B5C046EB
:082C7000F8BC08BC9E46704749
:102C78000000000000000000010203040607080924
:102C88000000000001020304020304050607080906
:102C98000A0B0C0D0E0F101001020304050607089D
:082CA800090A0B0C0D0E0F10C0
:042CB000E90000082F
:042CB400C100000853
:0C2CB80000127A0004000000010000007F
:0400000508000BE5FF
:00000001FF
