:020000040800F2
:1000000000180020452A0008352A0008372A000871
:1000100000000000000000000000000000000000E0
:10002000000000000000000000000000392A000865
:1000300000000000000000003B2A00083D2A0008E4
:10004000C52A0008C52A0008C52A0008C52A0008D4
:10005000C52A0008C52A0008C52A0008C52A0008C4
:10006000C52A0008C52A0008C52A0008C52A0008B4
:10007000C52A0008C52A0008C52A0008C52A0008A4
:10008000C52A00080000000000000000C52A000882
:1000900000000000C52A0008C52A0008C52A00087B
:1000A00000000000C52A0008C52A0008C52A00086B
:1000B000C52A000800000000C52A0008C52A00085B
:1000C00010B5064C2378002B07D1054B002B02D02E
:1000D000044800E000BF0123237010BD1000002081
:1000E000000000009C470008044B10B5002B03D013
:1000F0000349044800E000BF10BDC04600000000F6
:10010000140000209C47000802B4714649084900C9
:10011000095C49008E4402BC7047C0460022430877
:100120008B4274D303098B425FD3030A8B4244D3BF
:10013000030B8B4228D3030C8B420DD3FF22090201
:1001400012BA030C8B4202D31212090265D0030BC0
:100150008B4219D300E0090AC30B8B4201D3CB03B6
:10016000C01A5241830B8B4201D38B03C01A5241F8
:10017000430B8B4201D34B03C01A5241030B8B42FA
:1001800001D30B03C01A5241C30A8B4201D3CB02E5
:10019000C01A5241830A8B4201D38B02C01A5241CA
:1001A000430A8B4201D34B02C01A5241030A8B42CD
:1001B00001D30B02C01A5241CDD2C3098B4201D3E5
:1001C000CB01C01A524183098B4201D38B01C01A63
:1001D000524143098B4201D34B01C01A52410309DA
:1001E0008B4201D30B01C01A5241C3088B4201D389
:1001F000CB00C01A524183088B4201D38B00C01A36
:10020000524143088B4201D34B00C01A5241411A5C
:1002100000D20146524110467047FFE701B5002069
:1002200000F0F0F802BDC0460029F7D076E770472D
:1002300003460B437FD4002243088B4274D3030947
:100240008B425FD3030A8B4244D3030B8B4228D3E8
:10025000030C8B420DD3FF22090212BA030C8B420E
:1002600002D31212090265D0030B8B4219D300E0AE
:10027000090AC30B8B4201D3CB03C01A5241830B33
:100280008B4201D38B03C01A5241430B8B4201D3E3
:100290004B03C01A5241030B8B4201D30B03C01A0C
:1002A0005241C30A8B4201D3CB02C01A5241830A86
:1002B0008B4201D38B02C01A5241430A8B4201D3B5
:1002C0004B02C01A5241030A8B4201D30B02C01ADF
:1002D0005241CDD2C3098B4201D3CB01C01A524146
:1002E00083098B4201D38B01C01A524143098B42CF
:1002F00001D34B01C01A524103098B4201D30B01B8
:10030000C01A5241C3088B4201D3CB00C01A5241DC
:1003100083088B4201D38B00C01A524143088B42A1
:1003200001D34B00C01A5241411A00D2014652413A
:10033000104670475DE0CA0F00D04942031000D359
:100340004042534000229C4603098B422DD3030AAE
:100350008B4212D3FC22890112BA030A8B420CD3BE
:10036000890192118B4208D3890192118B4204D3E7
:1003700089013AD0921100E08909C3098B4201D367
:10038000CB01C01A524183098B4201D38B01C01AA1
:10039000524143098B4201D34B01C01A5241030918
:1003A0008B4201D30B01C01A5241C3088B4201D3C7
:1003B000CB00C01A524183088B4201D38B00C01A74
:1003C0005241D9D243088B4201D34B00C01A52414B
:1003D000411A00D20146634652415B10104601D3D8
:1003E0004042002B00D54942704763465B1000D362
:1003F000404201B5002000F005F802BD0029F8D008
:1004000016E770477047C0468446100062468C4627
:100410001900634600E0C0461FB500F0A9FD0028A2
:1004200001D40021C8421FBD10B500F0F9FC4042C4
:10043000013010BD10B500F09BFD002801DB00204D
:1004400010BD012010BDC04610B500F091FD002880
:1004500001DD002010BD012010BDC04610B500F028
:1004600021FD002801DC002010BD012010BDC04688
:1004700010B500F017FD002801DA002010BD0120A2
:1004800010BDC04670B500220C4B04000D00FFF7F4
:10049000EFFF002804D12000290001F0CBFB70BD44
:1004A000064B00222000290001F032F801F0C2FBC7
:1004B00080231B069C466044F1E7C0460000E041F3
:1004C000F0B54F464646D64644024500C0B5640ADC
:1004D0000F1C2D0EC60F002D00D18DE0FF2D00D179
:1004E00092E00023802099469A46E400C004044329
:1004F0007F3D7802430A98467B001B0EFF0F002BBE
:1005000000D170E0FF2B00D186E04246D00080226F
:100510007F3BED180023D204024390469C463100F5
:100520004B467940681C0F2B1CD8764A9B00D35849
:100530009F4639004446E2465346022B0FD0032B18
:1005400000D1D7E0012B37D100200024C005204383
:10055000C9070843E0BCBA46B146A846F0BDFF2033
:100560000024F3E7260C2404220C44462404240C23
:10057000434627001B0C574374435A435E431219EA
:100580003B0C9B189C4203D980225202944666443D
:100590003F041A043F0CD2199401671EBC411B0C86
:1005A000920E9B1914439B011C431B0100D49BE03A
:1005B000012362081C40144302007F32002A64DDDC
:1005C000630704D00F232340042B00D004342301FD
:1005D00003D502004C4B80321C40FE2ABFDCA40134
:1005E000640AD0B2B2E74346002B3DD14A460133FC
:1005F0001A4391469C4692E7002C29D10423994640
:10060000033B00259A4674E7002C1BD1082399462A
:10061000063BFF259A466CE74346FF35002B0BD17E
:1006200002234A461A4391469C4678E753463100D6
:10063000022B00D083E792E703234A461A439146F0
:100640009C466CE70C239946093BFF259A4650E7E8
:10065000200001F09DFB7625431F9C4000236D4246
:1006600099469A462D1A44E7404601F091FB4246CE
:10067000431F9A4000232D1A90469C46763D4EE734
:1006800080240021FF20E40360E701239B1A1B2B39
:1006900000DD59E722009E30DA4084401300621EDC
:1006A00094411C43630704D00F232340042B00D044
:1006B000043463011AD50120002447E78020C003D9
:1006C000044209D04346034206D14446044364022F
:1006D0003900FF20640A39E78020C0030443640224
:1006E0003100FF20640A31E7280065E7A4010020FB
:1006F000640A2BE78020C00304436402FF20640ADD
:1007000024E7C046B8470008FFFFFFF7F8B5002808
:1007100013D0C317C6185E40C40F300001F038FB79
:100720009E2305001B1A962B0FDC082801DD083DCF
:10073000AE407602760AD8B202E0002400200026FD
:10074000C0053043E4072043F8BD992B0CDD05229A
:100750003100121AD1400A00010030001B318840DC
:10076000411E884102431600052D12DC31000D4F59
:100770003940720709D00F203040042805D00431D9
:100780004A0102D59F2339405B1B89014E0AD8B22A
:10079000D6E76A1F96403100024F39407207F4D005
:1007A000E9E7C046FFFFFFFBF0B54F464646D64699
:1007B0000D000400C0B51F0011002803620F400A9D
:1007C00010437A00520DE3003C039146640AFA0F8D
:1007D0004F0F6E0027439246B846760DED0FC900C5
:1007E000954200D199E04C46341BA446002C00DC15
:1007F0007CE04A46002A00D1B8E0C54A964200D1C2
:100800001CE180223C0012041443A0466246382AB0
:1008100000DD61E11F2A00DDCCE164462022121BCD
:10082000444694400F00A14664469140E7404C4640
:100830004A1E91413C43424621436446E240801AAD
:100840005C1AA3429B415F42C71B3B0200D4D0E02D
:100850007F027F0A002F00D1FFE0380001F098FAF4
:1008600001000839202322005B1A8F40DA408C40B7
:100870001743B14200DAFFE0891B4B1C1F2B00DD40
:10088000A8E020223900D21A200094409140D8409C
:10089000621E9441DF40002601430C43630709D0E8
:1008A0000F232340042B05D0231DA342A4416442FF
:1008B0003F191C003B0200D49EE0954B01369E423E
:1008C00000D1B7E0934AE40817407B0771057F0227
:1008D00023433F0B4A0D12053A43ED072A43180004
:1008E0001100E0BCBA46B146A846F0BD002C4BD082
:1008F0004C46A41BA446002E00D023E104001C4358
:1009000000D1AFE16246541E012A00D115E2804DAC
:10091000AC4500D1C8E1A4461BE14A46B21A944650
:10092000002A00DCACE04A46002A43D0784A9642CE
:1009300000D1AFE180223C0012041443A04662467D
:10094000382A67DC1F2A00DC5FE14746203AD7409F
:100950006246202A05D064464022121B4446944039
:1009600021434A1E91410C003C4357E03A000A43A0
:1009700000D105E12200013A012C00D182E1644C52
:10098000A4455BD0944641E7634C771C274200D0D6
:10099000C4E004001C43002E00D069E1002C00D10B
:1009A000BFE144460C4300D0D0E14207DB081343CB
:1009B000C00829E03A000A4300D170E1624664466B
:1009C000013A012C00D1E0E0514CA44500D161E195
:1009D0009446B4E73A001F39CA401100202B03D0D7
:1009E0004022D31A9F403C43631E9C4100270026AF
:1009F0000C43630700D053E7B446E4087B07234366
:100A0000F808434A94451DD06246070352053F0B40
:100A1000520D60E744460C43621E9441E4189C4228
:100A20009B415F423F183B02E3D5394B01369E4262
:100A300000D0B5E03200002700234CE74207DB0876
:100A40001343C0081A00024300D1E1E180273F03AD
:100A500007433F032E4A3F0B3DE7200001F098F982
:100A6000010018311F2900DCFCE60838844027000B
:100A70000024B14200DBFFE6264A761A17400DE754
:100A8000002A2FD04A46921B9446002E00D1ADE09A
:100A90001F4A914500D10FE18022120410436246A3
:100AA000382A00DD0FE11F2A00DD80E164462022A4
:100AB0001E00121B6746040093409440FE405A1EDD
:100AC0009341F84034431C43804464188C42BF4136
:100AD0007F424E464744A6E742460A4311004A1E5B
:100AE0009141ADE60C4C721C224200D0A1E0020004
:100AF0001A43002E00D0FAE0002A00D145E13A0066
:100B00000A4300D046E14207DB081343C0087BE7F5
:100B1000FF070000FFFF7FFFFE07000047465C1A4B
:100B2000C21BA342BF417F42B94617004A46BF1AC3
:100B30003A0200D58DE023003B4300D08AE6002036
:100B4000002561E7B44CA14500D1ADE08024240428
:100B500020436446382C3DDC62461F2C00DDB7E0A4
:100B600020251E002D1B0400AB40AC40D640D040D9
:100B700042465D1EAB413443121A904623432CE09B
:100B80004207DB081343C0083BE75C189C429B41CB
:100B900040445B42C71801263B0200D429E70226E5
:100BA0009E4A63081740012214401C43FB071C4364
:100BB0007F0873E64446203AD4406246202A05D096
:100BC00067464022D21B4746974039434A1E91410F
:100BD000214335E60343581E8341CC1AA142BF414D
:100BE00043467F4255464E46DF1B2EE602001A431F
:100BF00000D1BDE062466446013A012C00D1E5E037
:100C0000854CA44558D0944649E764462022121BDF
:100C1000444694400F00A14664469140E7404C464C
:100C20004A1E91413C4342460C436146CA408018EB
:100C3000F4E6794CA24200D1FDE6591899429B4155
:100C400040445F42C719FC07490816000C437F085F
:100C5000CFE6CC1AA142BF4143467F42181A5546FF
:100C6000C71BF7E5C9087B0755460B43F808C8E6DC
:100C7000002C00D081E043460B4315D18020002595
:100C80000003E3E65C1AA3429B41C71B5B420126BB
:100C9000FF1ADAE54207DB081343C008D2E6420731
:100CA000DB081343C008ACE643464246C9085B076D
:100CB00055460B43D008C5E6434642465B07C90884
:100CC0000B43D008BEE603431C00631E9C41FCE6B8
:100CD0000200203CE24014006246202A03D0402556
:100CE000AD1AA8400343581E8341234375E7002AE9
:100CF000E2D03A000A43CDD04207DB0813438022FA
:100D0000C0081203104206D0FC08144203D1200090
:100D1000CB087A0713435A0FDB005207DB08134353
:100D200090E643460B4300D109E743464246C908D3
:100D30005B0755460B43D00866E6CC1AA1428941B1
:100D40003F1A4942554601267F1A7EE542465C1A03
:100D5000871AA34292415242BF1A3A023DD5CC1A99
:100D6000A1428941434649421F1A55467F1A95E5DB
:100D70007B07C9080B43F80843E64446DB080C43ED
:100D800030D142071343C0085CE67B07C9080B4318
:100D9000F80839E65C189C429B4140445B42C71806
:100DA0003B0200D425E61D4B01261F4021E604002E
:100DB000203AD4406246202A04D040226646921B44
:100DC000904003435A1E93411C437EE65C188C42BC
:100DD0008941404449424718DDE623003B4300D1A6
:100DE000ADE606E6440723438024C00824032042DE
:100DF00008D04246D608264204D155463000CB08DA
:100E000051070B435A0FDB00DB085207134319E667
:100E10000023014A1F005EE5FF070000FFFF7FFF80
:100E2000F0B54E464546DE4657469046E0B51700BB
:100E30001A03120B0500844619480E034C00914614
:100E40005A00DB0F9B46360B640DC90F520D8442CE
:100E500019D0824210D0012094420ED14E450CD1BF
:100E60000120C44509D1594517D0002C05D13000C7
:100E70002843431E984100E00120F0BCBB46B24627
:100E8000A946A046F0BD330001202B43F5D1A24274
:100E9000F3D14B463B43F0D1E2E70020EDE7C046FB
:100EA000FF070000F0B54746CE46040018001600C4
:100EB0001B031B0B2D4D4A00994680B543000F03C1
:100EC000A446B0463F0B520DC90F5B0DC00FAA429E
:100ED00021D0AB4213D0002A22D13C43002B02D1B7
:100EE0004D462E4322D0002C10D0814222D0022029
:100EF000013908400138C0BCB946B046F0BD4D4686
:100F00002E4329D1002AF0D13C43EED10028F2D162
:100F100001204042EFE73D0025431DD19342EED032
:100F2000002BE2D14C462643DFD1E0E70020002C25
:100F3000E1D0DCE79A420ADCE8DB4F45D7D80ED097
:100F400000204F45D7D20029E2D00800D3E7434222
:100F5000584140000138CEE702204042CBE7C4456B
:100F6000C5D80020C445C6D2EDE7C046FF07000043
:100F7000F0B54746CE460400180016001B031B0BB5
:100F80002C4D4A00994680B543000F03A446B04655
:100F90003F0B520DC90F5B0DC00FAA420DD0AB42E3
:100FA00010D0002A27D13C43002B11D14D462E43AF
:100FB0000ED10020002C15D00EE03D00254310D1AD
:100FC000934218D14D462E430BD1002A02D13C4307
:100FD000002C0BD0814214D0022001390840013886
:100FE00000E00220C0BCB946B046F0BD0028F9D1EF
:100FF00001204042F6E7002BECD14C462643E9D1D4
:10100000EAE79A4204DD4342584140000138E9E7EB
:101010009A42EBDB4F45DFD806D000204F45E1D2A6
:101020000029E5D00800DDE7C445D5D80020C44537
:10103000D8D2F5E7FF070000F0B557464E464546C3
:10104000DE46E0B598460C034B000600924687B09A
:10105000240B5B0DCF0F002B00D15CE1D94A9342EA
:1010600000D175E1420FE4001443802212041443BE
:10107000D54AC500944663440093002399469B4695
:10108000434642461E03D20F5B0050469046360B45
:101090005B0D00D120E1CB4A934200D162E1CA4905
:1010A000420F8C4600996344F6008C46164380221A
:1010B0009C44120463461643C2000020009300992A
:1010C000434601318C4649467B4001930F2926D87F
:1010D000BE4B890059588F46434601933400150092
:1010E00083465B46022B16D0032B00D103E2012B73
:1010F00000D0CDE0002200240025019B12052243F0
:10110000DB071A432800110007B0F0BCBB46B2460B
:10111000A946A046F0BD00240025AA4AEDE7280C08
:101120002D042D0C2B00110C1204120C5343984665
:1011300013002F00434399464F434F44BB46474655
:101140000B003F0CBA464343DA440293D14504D91D
:1011500080277F02B9464B44029353461B0C9B46A3
:1011600053461F0443461B041B0C98463B00434454
:101170000493330C3604360C9846330043439946A7
:10118000434643432F009A46434677435D43380C1A
:101190004D444519A94503D980235B029946CA44A9
:1011A0003F04280C3F0C2D04ED19270C2404240CBB
:1011B0000300200050437A4391463A00534405937C
:1011C000030C9A464A43614349445144AB44894520
:1011D00003D980235B0299464A4400040B0C000C9F
:1011E0000904091820009946434670435C437E4336
:1011F0005F43030C9846A41944444A440397A6420B
:1012000004D980235B029846474403972304029E37
:101210009A46059B5E449846AE42AD4176188E4292
:1012200089410004000C504440446D424719B846BF
:10123000934649428946C344D94498428041A845CF
:10124000AD4193459241894589416D4240422843D1
:10125000240C524249420A43039B00198018C718C4
:101260004B46DC0D049B75021D436A1E95414B469F
:10127000F60D7F0235435A023C431543FB0100D46F
:101280001CE101216A080D401543E207154364087B
:101290004F496144002900DCB0E06B0709D00F2200
:1012A0002A40042A05D02A1DAA42AD416D42641984
:1012B0001500E30104D58021464AC9001440614469
:1012C000454A914200DD26E76207ED0864024905C0
:1012D0001543240B4A0D10E75246324300D17FE0FC
:1012E000002E00D1DCE0300000F052FD02000B3A8D
:1012F0001D2301009B1A52460839DA408E401643DE
:1013000052468A40009B3549181A03008C466344B4
:1013100000200093D3E6250005434AD0002C00D1DD
:10132000B0E0200000F034FD010002000B391D2365
:1013300010005B1A3100350008388440D9408540E0
:101340000C432648831A0093002399469B4697E650
:101350000500254326D1082200930223002491464C
:101360009B468DE65246009B324310D1154900261C
:101370008C46634449460093022319438946022060
:101380009DE65B460197022B00D0ADE6C3E60D4A11
:101390000320944663444A46009303231A4391462C
:1013A00052468CE60C2200930323050091469B468F
:1013B00066E60423994600230093013300249B46EC
:1013C0005EE6C046FF07000001FCFFFFF84700088B
:1013D000FF030000FFFFFFFEFE0700000DFCFFFF04
:1013E00049460123194389460026012067E6002368
:1013F00080240025434A019324037EE60120401AFD
:10140000382800DD76E61F285BDD1F2223005242CC
:10141000511ACB401900202803D03B4A6244944023
:1014200025436A1E95412A000A4307210D00002426
:10143000154011425BD00F2100241140042953D0E4
:10144000111D914292415242A4180A0023024BD529
:1014500001220024002550E680231B031C4209D0F2
:101460001E4207D133431C0343461500240B254A73
:10147000019342E68022120314432403214A240BE1
:1014800001973AE600F084FC010002001531203299
:101490001C2900DC4BE7340008380025844050E765
:1014A00000F076FC03001A00153220301C2A00DC04
:1014B0001EE75646083B00229E4023E7009B9C46C1
:1014C000E6E61249220061442E008D408A40C64063
:1014D000691E8D4132432A43C4405307B6D00F21C1
:1014E00011400429ACD1B1E765076402240BD2088E
:1014F0001543002201E68022120314432403014A0B
:10150000240BFAE5FF0700003E0400001E04000063
:10151000F8B557464E464546DE46E0B51E00170074
:101520004A000B03520D5B0A9046420F1A43CD0F3F
:10153000CD4C3103C300944670007A0F490AFF0076
:101540009A46B946400DF60F1143A04200D1B1E0D2
:1015500001225640B346B54200D188E04246121AF5
:10156000002A00DCAEE0002800D1C1E0BE48804582
:1015700000D151E1802000040143382A00DD7BE1E5
:101580001F2A00DDEEE120203E00801A0C00D6402C
:10159000D140874062468440521A781E8741944663
:1015A00034432743DC1BA3429B4162465B42D31A70
:1015B00099464B461B0200D418E14B465802430A99
:1015C00099464B46002B00D137E1484600F0E0FB3E
:1015D000010008392023220048465B1ADA4088407F
:1015E0008C4043461043884500DD36E1C91A4B1C48
:1015F0001F2B00DDEAE020222600D21A01009440D1
:10160000DE40D84000239140621E944181469846B6
:1016100031430C43630709D00F232340042B05D02B
:10162000231DA342A4416442A1441C004B461B025B
:1016300000D4DEE041468C4B0131994200D1E7E015
:101640004B468A48E4080340180049055B074002FE
:1016500023434A0D040B1205ED0722432A431800C9
:101660001100F0BCBB46B246A946A046F8BD4246B2
:10167000121A002A52DD002800D19CE0A04500D1BA
:10168000CAE0802000040143382A00DD49E11F2A16
:1016900000DC97E110000E002038C640202A04D05C
:1016A0004020821A91400F43B9464C46621E944135
:1016B00034433AE10A003A4328D0B346B5422BD02E
:1016C0006B4A4244002A5DD042464446821A002CAE
:1016D00000D0F5E065461D4300D19CE1551E012A6E
:1016E00000D1FBE1604CA24200D1BDE12A00F0E054
:1016F0000800384300D1C3E0501E012A00D1A8E100
:10170000594CA24200D187E0020036E70122564040
:10171000B346B54200D021E7554A4244002A00D1E1
:10172000B5E042464446821A002C00D138E14E4EC4
:10173000B04200D1DEE18026644636043443A4463C
:10174000382A00DD96E11F2A00DD24E22026B41AA3
:10175000A24664465646B440A1461C004E46D440BC
:10176000264334005646B3405E1EB3411C436346D5
:10177000D340C918E419BC42BF417F42B9468046F4
:101780008944D8E040463B4C0130204200D0B4E0D0
:101790004046002800D044E16046184300D190E163
:1017A0000800384300D0AAE16146DB0849070B4333
:1017B0006146CC0827E00800384361D0501E012A5A
:1017C00000D139E1A24227D002005DE702001F39B3
:1017D000CA401100202B03D04022D31A9840044362
:1017E000631E9C410023994698460C43630700D032
:1017F00012E74B464A46E4085B072343D4084246B7
:1018000019498A420ED024035205240B520D22E7B7
:101810000A00002400231EE7DB0862465207134338
:101820006246D4081A00224300D1FCE18022120350
:10183000144324030C4A240B0DE7200000F0A8FAFF
:10184000010018311F2900DCC4E6083884404346F3
:1018500020000024884500DCC8E6044A5B1A1040DA
:1018600098468146D6E6C046FF070000FFFF7FFF8F
:1018700001F8FFFFFE0700000F437A1E974191E633
:101880006146DB0849070B436146CC08B8E7404690
:10189000D34C0130204200D0A2E04046002800D0C6
:1018A00001E16046184300D15EE10800384300D0F2
:1018B0005FE16146DB0849070B436146CC08A2E7BC
:1018C000C84DA84200D1CFE0802564462D042C43AA
:1018D000A446382A56DC1F2A00DDD1E020251E0050
:1018E000AD1A6446AB40AC40D6405D1EAB413443BC
:1018F00023436446D440091B49E06046DC1B461A7A
:10190000A34280414042814630004E46801B8146C2
:10191000000276D44B46234300D052E60024002533
:1019200071E739430C00621E9441E4189C429B41CC
:101930005B42634499464B461B0200D456E70123A1
:101940009C46A84BE044984538D04B46A648012217
:1019500003401800630814401C43C3071C4343089A
:10196000994657E610000E002038C640202A04D0C1
:101970004020821A91400F43B9464F467A1E974144
:1019800037430FE662461A4313005A1E9341FC1A6E
:10199000A742BF417F42CB1B99465D46804608E681
:1019A00066461E4300D1BEE0561E012A00D109E161
:1019B0008C4CA24200D119E13200C1E6424600241B
:1019C000002348E620200C00801A3E008740844017
:1019D000D640781E8741D14034433C438C44A4E731
:1019E000804A904200D1E9E0DF199F429B41614467
:1019F0005B42C918CC077F084B08994680463C4398
:101A0000F4E6FC1AA742BF4163467F42C91ACB1BCA
:101A100099465D46D5E5FF084B075D463B43CC083C
:101A2000EEE662461A4300D082E00B003B431BD136
:101A3000802400252403F9E6DC199C429B41614483
:101A400089465B4299444B461B0244D40123984685
:101A5000CCE6DC1B6246A3429B41511A5B42CB1A87
:101A6000994601239846A4E5FF084B075D463B4392
:101A7000CC08D7E662461A431400631E9C4179E6FF
:101A800015006446203DEC40A046202A05D04025A4
:101A90006446AA1A944023439A465446631E9C41C6
:101AA0004346234373E762461A4323D00A003A436E
:101AB00000D0A0E06246DB08520713436246D40818
:101AC000B0E60B003B4300D128E7FF084B075D461B
:101AD0003B43CC0897E60223984636E7FC1AA74218
:101AE000BF4163467F42C91ACB1B994601235D461D
:101AF00098465EE54B07FF083B43CC0892E6DC1BAB
:101B00006046A342B641401A7642801B81460002DD
:101B100060D5FC1AA742BF4163467F42C91ACB1B5E
:101B200099465D4676E5FF084B073B43CC0867E6E0
:101B30000A00DB083A4300D16FE6624652071343BE
:101B40006246D40880221203144207D0C80810420B
:101B500004D15D460400FB0849070B435A0FDB0024
:101B6000DB08520713435DE64B07FF083B43CC08F5
:101B700049E6DC199C429B41614489465B42994499
:101B80004B461B0200D431E64A46174B1A4001234C
:101B9000914698462AE616006446203EF440A04648
:101BA000202A05D040266446B21A944023439A4620
:101BB0005446631E9C4143461C43DBE5020000245F
:101BC000002348E5DC19BC42BF41614489467F429D
:101BD000B94438E74B46234300D19FE606E6C046AA
:101BE000FE070000FF070000FFFF7FFFFF084B0715
:101BF0003B43CC0816E66246DB08520713436246B5
:101C0000D40880221203144207D0C808104204D11D
:101C10005D460400FB0849070B435A0FDB005207DF
:101C2000DB081343FEE50023014A1C0013E5C04610
:101C3000FF0700000A0030B5134C530009030500EC
:101C4000090B00205B0DD20FA34204DD0F48834235
:101C500002DD0F4BD01830BD8020400301430D48FA
:101C6000C01A1F2808DD0C48C31AD9400B0058427F
:101C7000002AF0D11800EEE7084CC540A4466344A2
:101C800099400B002B43F2E7FE0300001D04000007
:101C9000FFFFFF7F3304000013040000EDFBFFFF94
:101CA00070B5002816D0C317C5185D40C40F2800B2
:101CB00000F06EF8114A121A0A2816DC03002E00F2
:101CC00015339E400B23181AC54052052D032D0BCA
:101CD000530D03E000240023002500261B052B43A1
:101CE000E40723433000190070BD0B3885405205CE
:101CF0002D0300262D0B530DF0E7C0461E040000F7
:101D000070B543004602C40FFE201B0E591C750A15
:101D100008420CD0E022920094466D07360B6344D3
:101D20001B053343E40723432800190070BD002B33
:101D300014D1002D1BD0280000F02AF80A281CDC42
:101D40000B232E001B1ADE40030015339D400E4A64
:101D50003603121A5205360B530DE1E7002D09D058
:101D60008022360B1203094B6D071643D8E7002378
:101D70000026D5E70026054BD2E703000B3B9D402C
:101D80002E000025E3E7C04689030000FF0700009E
:101D90001C2101231B04984201D3000C10391B0A9B
:101DA000984201D3000A08391B09984201D300095F
:101DB000043902A2105C40187047C04604030202B6
:101DC00001010101000000000000000073B50022C5
:101DD0001021902001AC22706270A170C00500F04B
:101DE000C5FF012000F09EF90123324E032221009D
:101DF00030005B4202F0A0F8300002F077FA0500F4
:101E00000128F9D100F08EF990202A001021C00598
:101E100000F0ACFF280000F09DFE0423902023700A
:101E20009D3363709A3B00221021A370C00500F01F
:101E30009DFF280000F076F90123032221003000E5
:101E40005B4202F079F8300002F050FA05000128F8
:101E5000F9D100F067F990202A001021C00500F0A8
:101E600085FF280000F076FE082310210022902034
:101E700023706170A270C00500F078FF280000F0A8
:101E800051F901230322210030005B4202F054F893
:101E9000300002F02BFA04000128F9D100F042F9D9
:101EA000902022001021C00500F060FF200000F00B
:101EB00051FE73BDB803002073B500221D2390208E
:101EC000194C102123706270A270E270C00500F0FE
:101ED0004DFF012000F026F90123144D144E5B4202
:101EE00000932A0021003000053302F0F1F83000A1
:101EF00002F0FCF904000128F9D100F013F9902058
:101F000022001021C00500F031FF80236878AA78F4
:101F10000004E9781202104308431B0300115840E3
:101F2000044BC01876BDC046300000202C000020B5
:101F3000B80300200000F8FF13B56B46D91D01233C
:101F4000064C0870012220005B4201F0F5FF2000E2
:101F500002F0CCF90128FAD113BDC046B803002025
:101F6000802370B504000C4D1B01AB61012000F013
:101F7000D9F8F820FFF7E0FF0F2320009843FFF780
:101F8000DBFF2001C0B2FFF7D7FF012000F0CAF845
:101F900080231B05AB6170BD00040048802370B531
:101FA00004000B4D1B01AB61FA20FFF7C5FF0F23A7
:101FB00020009843FFF7C0FF2001C0B2FFF7BCFF2D
:101FC000012000F0C7FD80231B05AB6170BDC0463A
:101FD0000004004810B580239024DB02E405A361CF
:101FE0000A2000F0B7FD04233220A36100F0B2FD07
:101FF0003020FFF7B5FF012000F0ACFD3020FFF7E7
:10200000AFFF012000F0A6FD0820FFF7A9FF012087
:1020100000F0A0FD0120FFF7A3FF0C2000F09AFDC7
:102020000620FFF79DFF012000F094FD0C20FFF734
:1020300097FF012000F08EFD0220FFF791FF0120A5
:1020400000F088FD10BD10B5140002280ED0032842
:102050000ED0012808D080200843C0B2FFF780FFCF
:102060002078002806D110BD9020F5E78820F3E7FE
:102070009820F1E70134FFF791FFF1E71FB5130056
:1020800003AA11709370190A01235B425170010079
:1020900000930348043300F0F5FF05B000BDC046CF
:1020A00070000020A82210B5034B5201012190209E
:1020B0001A80FFF7E3FF10BD34000020064B10B577
:1020C0001A88C0035204520C024392B2012190209C
:1020D0001A80FFF7D3FF10BD34000020064B10B567
:1020E0001A88064900030A40024392B20121902057
:1020F0001A80FFF7C3FF10BD34000020FF8FFFFFE1
:10210000064B10B51A88064900020A400331024303
:10211000FF3190201A80FFF7B1FF10BD340000207E
:10212000FFFEFFFF0023834200D17047C046C04638
:10213000C046C046C046C046C046C046C046C0466F
:10214000C046C046C046C046C046C046C046C0465F
:10215000C046C046C046C046C046C046C046C0464F
:10216000C046C046C046C046C046C046C046C0463F
:10217000C046C046C046C046C046C046C046C0462F
:10218000C046C046C046C046C046C046C046C0461F
:10219000C046C046C046C046C046C046C046C0460F
:1021A000C046C046C046C046C046C046C046C046FF
:1021B000C046C046C046C046C046C046C046C046EF
:1021C000C046C046C0460133ADE782B010B50393A8
:1021D0001C234B43C018029202AB0C3016CB16C026
:1021E00010BC08BC02B01847014B98609981704739
:1021F00038000020014B98807047C046380000200E
:10220000802110B50248890100F0AAFD10BDC0462A
:102210000008004870B50C4B0C4C86B0236003AB33
:1022200019000B4A61CA61C101251A7800212A43AD
:102230001A70059A20000092049B039AFFF7C5FFCD
:10224000257506B070BDC046012200084800002078
:1022500038480008F0B587B002921E000022002323
:1022600005000C00FEF7E6F8029F002807D0029B4D
:10227000029A5F1C80231B06E4182D231370002E86
:102280005ADA002228002100564BFEF7D3F8002826
:1022900066D1002228002100534BFEF7CBF800281E
:1022A00061D1002228002100504BFEF7C3F800281E
:1022B0005BD10022280021004D4BFEF7BBF800281F
:1022C00055D10022280021004A4BFEF7B3F8002820
:1022D0004FD1002228002100474BFEF7ABF8002821
:1022E00049D1009028002100FFF7A4FC03900028AA
:1022F00043D17B1C019330233B70009B002B15D0F6
:102300000398FFF7CDFC02000B0028002100FFF727
:10231000FFF8019A2E2314001370009AA518A54205
:1023200049D10098019B01301B1801930023019AA9
:102330000298137007B0F0BD00960A2E01DD0A2343
:102340000093002ECED0009B2800DA002B4B2100FA
:102350009B181A685B68FEF727FA05000C00C1E7B6
:1023600006230093EFE70523FBE70423F9E70323A4
:10237000F7E70223F5E70123F3E7039E0597059BA3
:10238000300004930A21013301930593FEF736F8D8
:10239000049B3031300019700A21FDF749FF061EF9
:1023A000EDD1019BBB42A8D9013B39781A7819704D
:1023B0003A700137F6E700220B4BFEF73DFE0F00A7
:1023C0000600FEF75FF8C0B2030030336370FFF71A
:1023D00067FC02000B0030003900FFF799F8013468
:1023E0009DE7C0460000F03F000024400000594037
:1023F00000408F400088C340006AF84068480008E9
:1024000030B5102599B0302200210CA802F0BEF999
:102410002A00002101A802F0B9F91822002105A81C
:1024200002F0B4F9012422230BA80B930E94139409
:102430000F9501F063F8002801D072B6FEE707237C
:10244000039001930490043B210001A8029301F042
:10245000DDFA002801D072B6FEE7074B079008901E
:102460000A9005A8059301F06BFB002801D072B615
:10247000FEE719B030BDC04621000200F0B591B0B2
:1024800000F062FB00F044FBFFF7BAFF14220021CA
:1024900008A802F07BF98020CD4B00035969CD4E8E
:1024A000014359615A69CC4D024080200492049A3C
:1024B0005969C003014359615A69002402408020D0
:1024C0000592059A596980020143596180215A6930
:1024D000C902024090200692069A5A69C0050A4332
:1024E0005A615B6900220B4007933100079B00F0A3
:1024F0003DFC902001221021C00500F037FC002295
:102500002900B64800F032FCE02301271B02B44842
:1025100008A9089309940A9700F072FB902008A973
:10252000C005089609970A940B9400F069FB1023E4
:102530009020089308A90D3BC0050B9309970A94B6
:1025400000F05EFBA54808A9089509970A940B942A
:1025500000F056FBA34BA14808A9089309940A97D9
:1025600000F04EFB8023A0481B0108A908930994A2
:102570000A9700F045FB9D489D4B08260360022307
:102580004660836003618461C461046200F038FFC7
:10259000A04201D072B6FEE7964C974BA060236034
:1025A000964B20616061A061E06120622000636061
:1025B000E76000F011FD011E01D072B6FEE72000B9
:1025C00000F0D4FE011E01D072B6FEE7200000F03C
:1025D000F3FE002801D072B6FEE7894D894BA86052
:1025E0002B6082235B006B60E023DB00EB608023C9
:1025F0009B00AB61C93BFF3B2861EB612862313B2B
:102600006862A862286368632800EB626F6101F06A
:102610001BFC031E01D072B6FEE77B487B4A836039
:102620000260822252004260E022D200C260022296
:102630000261FF32FF328261D93AFF3AC261213A28
:1026400043610362436283620363C262466301F0D3
:10265000FBFB031E01D072B6FEE76D486D4A836036
:1026600002609622120242600C22C3600361426142
:102670008361C3610362436202F014F8002801D051
:1026800072B6FEE790203A003100C00500F06EFB04
:1026900090200221C005FFF7A7FDFA208000FFF778
:1026A000A9FDFFF7B7FD022328002B6101F0CCFB49
:1026B000061E01D072B6FEE7FFF78CFC642000F026
:1026C00049FA31003000544AFFF7BDFC31003800B0
:1026D000524AFFF7B8FC31000220514AFFF7B3FC21
:1026E000310003204F4AFFF7AEFC28002E6101F0B5
:1026F000ABFB051E01D072B6FEE7FFF767FBFFF7E5
:10270000D1FC3800FFF7EAFC3800FFF7D7FC2800BF
:10271000FFF7F6FC0123444D5B4202930333002292
:102720009021019300953B00200000F03DFD2B78A7
:1027300068781B02C0183D4B00B21880FDF7E6FF19
:10274000C5210906FDF7BCFEE0218905FDF7B8FEAD
:10275000FFF7D6FA364B08AA186059600323FFF733
:1027600079FD3800390008AAFFF76DFC0023244DDD
:1027700028002B6101F068FB002801D072B6FEE74B
:10278000FFF79AFBFFF78CFA2A4A2B4BFEF754FC13
:102790002A4B0022FEF750FC0223294E2B613060A9
:1027A0007160280001F050FB002801D072B6FEE7EE
:1027B00003233068716808AAFFF74CFD3900032035
:1027C00008AAFFF740FCFA20C00000F0C3F9A1E717
:1027D000001002400F8100000F2800000004004894
:1027E000000800483013000000140048C400002016
:1027F000005C004070000020005400400E090020E2
:10280000B8030020003001401C04002000380040C4
:102810008004002000380140444800085148000866
:1028200054480008634800081805002008050020E7
:10283000100500202D431CEBE236BA3E00408F40CD
:102840006800002001200A4B82B099690143996118
:1028500080219A69490502400092009ADA690A4388
:10286000DA61DB690B400193019B02B07047C046FF
:102870000010024010B5040088B01422002103A803
:1028800001F084FF124B22689A421ED18021114C24
:10289000C902626910480A43626163690B4001938F
:1028A000019BC0230393AE3B04930F3B069303A904
:1028B000023B079300F0A4F98021E26989030A43EF
:1028C000E261E3690B400293029B08B010BDC04671
:1028D00000540040001002400004004830B50400DD
:1028E0008BB01422002105A801F050FF2368284A6C
:1028F00093421FD18020274B400199690143996180
:1029000080219A69890202400192019A5A699020B5
:102910000A435A615B69C0050B400293029BE023A6
:102920000593DE3B06930133089305A900F068F98F
:102930000BB030BD184A9342FAD18020154BC0012C
:10294000D96902250143D9618021DA69C9020240AF
:102950000392039A5A6903240A435A615B690F4838
:102960000B400493049B8023DB000593052305A9FA
:1029700009930695089400F043F9C0231B020593C0
:1029800000230648069507930894099305A9CDE707
:1029900000300140001002400038004000040048B0
:1029A00010B5040088B01422002103A801F0EEFE47
:1029B000134B22689A4220D18020124BC0019969A2
:1029C0000143996180219A69890202400192019A2A
:1029D0005A6990200A435A615B69C0050B40029313
:1029E000029BC023DB00039302230493013306936D
:1029F00003A9023B079300F003F908B010BDC046DD
:102A00000038014000100240084B026882B09A4230
:102A100009D18020064A0004D1690143D161D369FC
:102A200003400193019B02B07047C046005C004028
:102A300000100240FEE7FEE77047704710B500F057
:102A400077F810BD1348854600F03DF8124801683C
:102A5000090E124A914205D11148124901601248EB
:102A60001249016012481349134A002302E0D45866
:102A7000C4500433C4188C42F9D3104A104C0023BC
:102A800001E013600432A242FBD301F05BFEFFF7CA
:102A9000F5FCFEE700180020040000001F00000005
:102AA000181002400100000000000140000000007A
:102AB000000000200C000020044900081000002045
:102AC00020050020FEE7704770B50500FA200D4B89
:102AD00080001978FDF722FB0B4B01001868FDF709
:102AE0001DFB00F073F804000120002C09D1032D18
:102AF00007D802382200290000F03EF82000034BDE
:102B00001D6070BD040000200000002008000020AF
:102B10001023064A10B5116803200B431360FFF71A
:102B2000D3FFFFF78FFE002010BDC04600200240FB
:102B3000034A044B11681B785B1813607047C0464A
:102B40001C05002004000020014B18687047C04697
:102B50001C05002070B50400FFF7F6FF0500631C9C
:102B600002D0044B1B78E418FFF7EEFF401BA04295
:102B7000FAD370BD0400002030B5FF2503242A00DD
:102B80000440E400A24089012940D243A140C3B2DD
:102B900000280ADBC0240B4B80088000C018A4006A
:102BA00003591A401143015130BD0F200340083B27
:102BB00005489B089B001B18D86902401143D96146
:102BC000F2E7C04600E100E000ED00E08022431E95
:102BD0005204012093420DD2C021074A0748536096
:102BE000036A09061B021B0A0B430362002007232A
:102BF000906013607047C04610E000E000ED00E018
:102C00000023F0B587B00A681400DC4001D107B09A
:102C1000F0BD012514009D402C4001942A4200D1B2
:102C200091E04A685E0094460322644622400324F1
:102C3000B440E4430294541E012C2AD88768029CB5
:102C40002740CC68B4403C43846044680127AC43CF
:102C50002500644624093C409C402C434460C568E0
:102C6000029C25408C68B4402C43C460022A12D1D7
:102C7000DC080725A4000419276A03940F241D40CB
:102C8000AD00AC40A7430C69AC402743039C2762CE
:102C900001E0032AE3D10468029DB24025402C00E4
:102CA00014430460C0246246A40222424BD0012592
:102CB000264A90279469FF052C43946192699C08E9
:102CC0002A400592059A224AA400A4180F22023530
:102CD0001D40AD00AA40A66896430022B84208D025
:102CE0001C4F0132B84204D01B4F0132B84200D011
:102CF0000332AA4067463243A260184A019C966894
:102D0000019DE4433543FF0201D435002540674669
:102D10009560D668019D3543BF0201D4350025403A
:102D20006746D5605668019D3543BF0301D4350021
:102D30002540674655601568019E2E43FF0301D468
:102D400025402E00166001335DE7C04600100240AA
:102D50000000014000040048000800480004014051
:102D600000690840431E9841C0B27047002A01D054
:102D7000816170478162FCE703689A69920701D517
:102D800000229A6201229969114202D199690A438B
:102D90009A61704730B5039C00682343120489058B
:102DA0001A43890D054B45680A43640D1C435200C4
:102DB000A54352082A43426030BDC046FF63FF036B
:102DC000F7B5150002680E00916910230F0004008A
:102DD0001F40002019420ED02027D361009001909F
:102DE00023689A693A4264D1019A002A32D00427B2
:102DF0000120009B1F438021236849009A690A42F1
:102E000002D00120D96107438021C9000A4203D0C2
:102E10000820D96107430738802189000A424DD034
:102E20000222D96117432000FFF7A6FF2268254937
:102E300053680B40536023002022606C41330743EA
:102E400067641A702200002342324034137001205C
:102E5000237035E0721CC4D0FFF776FE401BB042F1
:102E600001D8002EBCD12200236842325868117864
:102E7000CAB2802194469A6909020A420CD0802283
:102E8000D201104208D16146202905D059680A4371
:102E90005A60FFF759FE050023689B693B429FD1AA
:102EA000FFF752FE401B1928F6D901230097019322
:102EB00096E7019A002A9AD1DF6198E70028B2D1FB
:102EC000FEBDC04600E800FEF8B504000D00160087
:102ED000022723689B693B4201D00020F8BD3200E5
:102EE00029002000FFF76CFF002818D16B1CF0D0E0
:102EF000FFF72AFE801BA84201D8002DE9D12368E4
:102F00009B691A003A403B42E3D12021636C0B439A
:102F1000636423004034413319705A7022700120D9
:102F2000DCE7F8B504000D0017001E002268936965
:102F30002B405B1B59424B41BB4201D000201FE09C
:102F4000731CF4D0FFF700FE069BC01AB04201D8F4
:102F5000002EEBD123689B692B405B1B5A425341E7
:102F6000BB42E3D12022636C01201343636423003E
:102F700041331A7022000023423240341370237010
:102F8000F8BDF8B504000E001700202523689B69E2
:102F90002B4201D00020F8BD3A0031002000FFF79D
:102FA0000FFF002815D1FFF7CFFDC01BB04201D89D
:102FB000002EEBD123689B691A002A402B42E5D1F1
:102FC000636C2B4363642300403441331D705A709B
:102FD00022700120DFE7000070B504000120002C02
:102FE0003FD0250041352B78DAB2002B05D12300E4
:102FF000403320001A70FFF73DFC242301212B7081
:1030000023681D481A68A6688A431A6061681B4ACB
:103010000A401A619A6802409A60E268012A21D146
:1030200080210902314399605A681549114359605A
:10303000DA6861690240DA60226900200A43A16906
:1030400009020A43DA60216AE2690A431A6001222E
:1030500019680A431A60202360642B70206342348D
:10306000207070BD8421090231439960022ADBD1AE
:10307000802212015A60D7E7FF7FFFFFFFFFFFF0BA
:1030800000800002F0B587B005930300413304923D
:1030900003931B7804000F000220202B14D123007F
:1030A00040331A78012A0FD001261E70FFF74CFD1D
:1030B0008021050000901923320020000902FFF74B
:1030C00030FF002802D0012007B0F0BD21232600E8
:1030D000039A42361370113B3370049B6064636241
:1030E000059B60636385628D2D4BFF2A20D9FF22EB
:1030F0002285009380235B0439002000FFF74AFEFD
:10310000638D2A0020000C99002B19D1FFF739FF9D
:103110000028D8D120212368224DD9615A682A403D
:103120005A60230040344133197030702070CBE76F
:10313000628D92B22285D2B2009380239B04DBE79A
:10314000FFF7C2FE0028BED1636A226819780133F6
:1031500091626362638D228D013B9BB26385013A6C
:10316000638D92B22285002BCAD0002AC8D180215B
:1031700020000C9B0095FFF7D4FE0028A3D1638D9F
:10318000FF2B06D9FF2323858023FF2200905B04B9
:10319000B2E7628D92B22285D2B20090CDE7C046EE
:1031A0000020008000E800FEF0B589B004930EAB6B
:1031B000039204CB04001B8805920693030041335D
:1031C00007931B780F000220109E202B08D1002AA5
:1031D00002D0069B002B05D180239B006364012055
:1031E00009B0F0BD230040331A780220012AF7D03D
:1031F00001221A70FFF7A8FC802119230090050016
:10320000012220000902FFF78CFE031EE7D12222D3
:1032100007990A70220042320792402207990A70E9
:10322000059A60646262069A4D4962856A466063E7
:10323000127C200000913900FFF7ACFD2A0031001C
:103240002000FFF741FE002827D1049A2368012AB5
:1032500017D16A46127B40219A6220003300002277
:103260000095FFF75EFE002817D1628D3D4BFF2AC7
:1032700017D8628D92B2228500938023D2B29B042C
:1032800014E0039A3100120A9A6220002A00FFF724
:103290001BFE002801D12368DBE7002340342370A4
:1032A0009DE7FF222285009380235B0439002000E4
:1032B000FFF770FD33000022042120000095FFF786
:1032C00030FE002800D08AE72368626A5B6A1370C8
:1032D000636A228D01336362638D013A013B9BB2C5
:1032E0006385638D92B22285002B17D0002A15D1F9
:1032F0003300802120000095FFF713FE002800D046
:103300006DE7638DFF2B23D9FF2323858023FF22C5
:1033100000905B0439002000FFF73CFD638D002B1B
:10332000C8D12A0031002000FFF72BFE002800D072
:1033300055E7202123680C4DD9615A682A405A600C
:10334000230041331970079B40341870207047E701
:103350008023628D9B0492B22285D2B20090D9E77D
:10336000002000800024008000E800FEF0B504008A
:103370004134227803000F000220D6B2202A18D14F
:103380001D0040352A78012A13D0242222701B68A0
:10339000233A1968074891431960196801400020D1
:1033A000196019683943196019680A431A60267050
:1033B0002870F0BDFFEFFFFF0200F0B54132147836
:1033C0000300E5B20220202C17D11C0040342678DF
:1033D000012E12D0223010701B6823381E68074F50
:1033E00086431E601E6809023E4031431960196819
:1033F00008431860002015702070F0BDFFF0FFFF3B
:10340000F0B50400012587B0002832D0304D435D6F
:10341000DAB2002B04D1AA239B00C254FFF7F4FABE
:1034200003236355206801F06FF900230127190079
:103430006068834220D3002228261100904233D8AE
:1034400023006A46103343CB43C203CB03C2A268B6
:10345000E3686168206801F061F90023621DD37799
:10346000012262551D00E369934202D1200000F061
:1034700031F8280007B0F0BD29262822B4465A4367
:10348000A2189444664637702826B446944466468B
:1034900033702B26B4469444664601333170DBB258
:1034A0009163D1631164C4E733005343E3181F00F1
:1034B0006A37FF373970013F3A70F97081336C3FDA
:1034C000F967FF33803701323960D2B21960B5E74E
:1034D000A902000003680200BA20012110B5800093
:1034E000B82411500020A400105554331A881143F9
:1034F0000222198019880A431A8010BDF0B5040011
:1035000085B000284ED00368DB0733D423689B07BF
:1035100000D58AE023681B0700D5CAE023685B0753
:1035200000D5EDE02368DB061AD562690423BC4DA3
:10353000012A00D058E1696B02270B436B636B6B68
:103540001A436A63FFF700FB06006B6B3B4200D136
:1035500043E1F8216A6BA3698A43DB0013436B6381
:1035600023689B0600D567E1636A002B00D0A6E1C3
:1035700000202FE00C21AA4D6A680A40042A0BD0D3
:103580006B680B40082B0FD1C0226B6852021340AE
:1035900080225202934207D12B689B03B6D5636801
:1035A000002BB3D1012015E06368012B14D18023D7
:1035B0002A685B0213432B60FFF7C6FA80270600D8
:1035C000BF022B683B42A1D1FFF7BEFA801B6428E3
:1035D000F7D9032005B0F0BD002B16D12B68914A16
:1035E000802713402B602B688F4ABF0213402B604B
:1035F000FFF7AAFA06002B683B4200D186E7FFF7E7
:10360000A3FA801B6428F6D9E3E7052B05D18023B4
:103610002A68DB0213432B60C9E72B68814A1340F9
:103620002B602B68804A1340C5E70C227C4D6B68E9
:1036300013420BD06B681340082B15D1C0226B6866
:10364000520213408022120293420DD12B689B0735
:1036500002D5E368012BA5D1F8212A6823698A43A2
:10366000DB0013432B6055E7E2680123002A0FD0EB
:103670002A68022713432B60FFF766FA06002B68BF
:103680003B42E9D1FFF760FA801B0228F7D9A0E797
:103690002A6802279A432A60FFF756FA06002B6829
:1036A0003B4200D136E7FFF74FFA801B0228F6D9DC
:1036B0008FE7E26901235A4D002A10D06A6A022777
:1036C00013436B62FFF740FA06006B6A3B4200D07F
:1036D00024E7FFF739FA801B0228F6D979E76A6AEE
:1036E00002279A436A62FFF72FFA06006B6A3B4291
:1036F00000D113E7FFF728FA801B0228F6D968E704
:1037000080220021464D5205EB690091134208D1F9
:10371000EB691343EB61EB6913400393039B0123B4
:1037200000938027414E7F0033683B4206D0A36858
:10373000012B13D12A6A13432B6230E033683B43D9
:103740003360FFF701FA019033683B42EFD1FFF796
:10375000FBF9019BC01A6428F6D93AE70122002B35
:1037600014D12B6A022793432B622B6A03329343B3
:103770002B62FFF7E9F906002B6A3B4216D0FFF7F0
:10378000E3F92B4B801B9842F6D922E7052B16D183
:10379000296A013B0B432B622B6A1A432A62FFF70B
:1037A000D3F9022706002B6A3B420FD0009B012B66
:1037B00000D0B7E6EB691F4A1340EB61B2E62B6A13
:1037C000934304222B622B6A9343B5E7FFF7BCF9BE
:1037D000174B801B9842E6D9FBE6FFF7B5F9801B33
:1037E000022800D8B1E6F4E6053203D16A6B9A43A9
:1037F0006A63AEE66A6B0227134301226B636B6B4D
:1038000093436B63FFF7A0F906006B6B3B4200D15B
:10381000A6E6FFF799F9801B0228F6D9D9E6C0463B
:1038200000100240FFFFFEFFFFFFFBFF00700040A3
:1038300088130000FFFFFFEF0C21554D6A680A4016
:103840008A4209D06B680B40082B0ED1C0226B68EE
:1038500052021340934208D16B6B9B0300D483E662
:10386000236A012B00D09DE67EE6236A002B13D04D
:1038700080236A6B5B0213436B63FFF765F9802754
:103880000600BF026B6B3B4200D06DE6FFF75CF9B0
:10389000801B0228F6D99CE66B6B3E4A80271340BA
:1038A0006B63FFF751F90600BF026B6B3B4200D11F
:1038B0005AE6FFF749F9801B0228F6D989E60C2160
:1038C000334D6A680A40082A47D0334A022B32D166
:1038D0002B68802713402B60FFF736F90600BF04E2
:1038E0002B683B4221D10F22EB6A80269343226B47
:1038F000B6041343EB62A16AE36A6A680B43274983
:103900000A4013436B6080232A685B0413432B60D7
:10391000FFF71AF904002B68334200D028E6FFF7BE
:1039200013F9001B0228F6D953E6FFF70DF9801BA7
:103930000228D5D94DE62B68802613402B60FFF76F
:1039400003F90400B6042B68334200D110E6FFF7F8
:10395000FBF8001B0228F6D93BE6012B00D121E63B
:10396000C0216B68A06A4902EA6A1940814200D00E
:1039700018E60F210A40216B8A4200D012E6F0229D
:1039800092031340E26A934200D1F1E50AE6C04691
:1039900000100240FFFFFEFFFFFFFFFEFF7FC2FFA0
:1039A0000C20144A10B553681840082808D00C3869
:1039B000431E9841104B40421840104BC01810BD98
:1039C0000F20990C0E4C0140D26A645C0D490240F4
:1039D000895CC0228020520213404002834201D100
:1039E000094802E09342FBD10448FCF797FB60438F
:1039F000E5E7C0460010024000A69DFD006CDC0219
:103A0000D8480008E848000800127A00F7B504001A
:103A10000F00002801D10120FEBD01223A4D2B6884
:103A200013408B421CD321688B0722D4CB072FD4A1
:103A300001232A681A40BA4257D82368334D5B07DE
:103A40005AD4FFF7ADFF6B68314A1B061B0FD35CDE
:103A5000D840304B18600320FFF736F80020DBE732
:103A60002B6893430B432B602B6813408B42D2D1BE
:103A7000D9E7264A4B0704D5E0235068DB0003430F
:103A80005360F02053688343A06803435360CDE73D
:103A900062681E4E012A03D133689B0305D4BAE73E
:103AA000022A1AD133689B01B5D5032173688B4371
:103AB00013437360FFF748F801900C2372681A40B3
:103AC00063689B009A42B3D0FFF73EF8019BC01A8F
:103AD000114B9842F1D903209EE7032A01D1736B61
:103AE000DBE733689B07E0D495E72A689A432A60AE
:103AF0002A681A42A1D08EE76B68084A1340E26830
:103B000013436B609DE7C046002002400010024056
:103B1000C04800080000002088130000FFF8FFFFE5
:103B2000044B054A5B685B055B0FD35C034A106876
:103B3000D840704700100240D04800080000002024
:103B4000F0B50368050085B0DB032AD5802200218B
:103B5000414C5205E3690091134208D1E3691343D4
:103B6000E361E36913400393039B012300938027E0
:103B70003A4E7F0033683B423AD0226AC02311009C
:103B80009B00374E19401A4244D1236A1E406B688D
:103B90001E43009B2662012B03D1E369314A134087
:103BA000E3612A68D30706D503202B490B6B8343B7
:103BB000A86803430B63930606D5102026490B6BB8
:103BC0008343E86803430B63930306D580202249AF
:103BD0000B6B8343686903430B630020530517D5C0
:103BE00040211D4A136B8B4329690B4313630FE07C
:103BF00033683B433360FEF7A7FF019033683B42D5
:103C0000BBD1FEF7A1FF019BC01A6428F6D903209F
:103C100005B0F0BD6A6813408B42B6D08023226A9B
:103C2000206A11005B0203432362236A0E4831407D
:103C3000034023622162D307A7D5FEF785FF070063
:103C40000222236A1342A0D1FEF77EFF074BC01B5E
:103C50009842F5D9DBE7C0460010024000700040F2
:103C6000FFFCFFFFFFFFFFEFFFFFFEFF88130000D9
:103C7000F0B51700002285B01D0002ABDA70040019
:103C80000E00FEF761FFED192D1AFEF75DFF2322EE
:103C90002368009001932A4B1B6853431B0D6B4311
:103CA0000393216802ABDA1C8B6818003040334262
:103CB0003BD0C023DB009E4204D1019B1B7BDBB2C7
:103CC000137013787B1CEFD0FEF73EFF009BC01AE9
:103CD000A8422CD3E02123685A688A435A60822282
:103CE0006168520091420CD18021A26809028A4287
:103CF00003D08021C9008A4203D140211A688A4337
:103D00001A608021A26A89018A4206D119680D4889
:103D10000140196019680A431A60230001225D33CB
:103D20001A70002303205C34237005B0F0BD039BA0
:103D30005A1E93415B421D40039B013BB0E7C046C6
:103D400000000020FFDFFFFFF0B50E0085B015007A
:103D50000400FEF7F9FEAD192D1AFEF7F5FE8027D7
:103D6000254B01901B685B011B0D6B43039322687D
:103D70009368180038403B4232D0731CF8D0FEF7ED
:103D8000E3FE019BC01AA8422CD3E02123685A68A5
:103D90008A435A6082226168520091420CD180218C
:103DA000A26809028A4203D08021C9008A4203D155
:103DB00040211A688A431A608021A26A89018A42D6
:103DC00006D119680D480140196019680A431A6044
:103DD000230001225D331A70002303205C3423701A
:103DE00005B0F0BD039B5A1E93415B421D40039BEF
:103DF000013B0393BBE7C04600000020FFDFFFFF4D
:103E000070B513000D0016000A00C021490104001E
:103E1000FFF72EFF002805D02023226E0320134336
:103E200023660FE0320029002000FFF78DFF0028F5
:103E3000F2D1C02133002A002000C900FFF718FF8B
:103E40000028E9D170BD0000F8B504000120002C65
:103E500067D0636A002B65D182226168520091426B
:103E600000D0E36100232500A3625D352B78DAB230
:103E7000002B05D123005C3320001A70FEF72EFDC5
:103E8000022340212B702268E56813688B43E021F0
:103E90001360C90000238D4248D8802040018D4224
:103EA00000D0A362822366685B0033408426A76843
:103EB00036023E40334302262769A1693E40334320
:103EC00001266769B44637403B438027BF000F4057
:103ED0003B433827E669090C37403B438027266A75
:103EE00037403B438027A66ABF0137403B431360FE
:103EF00010230827666A3340666B37403B43F02740
:103F00003F013D401D4304231940294308435060AD
:103F1000D369084900200B40D361634620665D34B5
:103F20002370F8BD0023236163619BE7F021180033
:103F30000901B4E7FFF7FFFFF0B51D00030085B0EE
:103F400000915C3316001A7804000227012A00D180
:103F500085E001221A70FEF7F7FD230001905D3322
:103F60001A78D7B2012A00D0AFE0009A002A73D0A5
:103F7000002E71D003221A700023009A2366A263D8
:103F8000A21D2364A687E68702329387D387802207
:103F9000A1682365E36412022368914208D140219D
:103FA0001A688A431A6080221968D2010A431A608B
:103FB00040221968114202D119680A431A60E021AF
:103FC000E0686268C90088424FD9002A01D0012EFA
:103FD00009D1009A1288DA60009B991CE38FA163D3
:103FE000013B9BB2E3870226E38F002B19D1290006
:103FF0002000019AFFF704FF002863D1A368002B7B
:1040000006D103932368DA6803929B680393039BAA
:10401000226E002A20D1230001215D331700197080
:104020001AE022689368334209D0A36B19880233DF
:10403000D160A363E38F013B9BB2E387D4E7FEF734
:1040400083FD019BC01AA8420CD36B1CCCD023006B
:10405000012203275D331A7000235C34237038007B
:1040600005B0F0BD002DBFD1F1E7002A01D0012E2F
:1040700009D1009A12781A73A36B0133A363E38FFB
:10408000013B9BB2E3870226E38F002BAFD023686E
:104090009A6832420AD0A26B12781A73A36B01336A
:1040A000A363E38F013B9BB2E387EDE7FEF74CFD93
:1040B000019BC01AA84202D36B1CE5D0C7E7002DB4
:1040C000E2D1C4E72023236698E70227C4E7000073
:1040D000F7B51E0003005C3317001A7804000D00CA
:1040E0000220012A1BD001221A70FEF72DFD2300A9
:1040F00001905D331B786168DAB2012B09D082230D
:1041000002205B00994207D1A368002B04D1042A46
:1041100002D1002D04D1012000235C342370FEBDA8
:10412000002FF8D0002EF6D023005D331A78042A31
:1041300001D005221A70220000230832236627646A
:10414000D687A21DD687E022E068E3642365A563D5
:104150002368E687A687D200904235D95A68624F15
:104160003A405A6040221F68174202D11F683A4302
:104170001A60E022D200904261D9002901D0012EBC
:1041800007D12A880235DA60E38FA563013B9BB231
:10419000E387012502272E00E38F002B19D123008E
:1041A0000833DB8F002B14D12000019A0899FFF708
:1041B00027FE002800D093E0236E002BABD1230014
:1041C00001225D331A70A7E780225F6852013A43EB
:1041D000C7E7206883683B420ED0E38F002B0BD0EB
:1041E000012D09D10025A36B1A880233C260A36395
:1041F000E38F013B9BB2E387836819003140334270
:104200000ED022000832D38F002B09D00D00C068D9
:10421000236C188002332364D38F013B9BB2D38776
:10422000FEF792FC019BC01A089B9842B4D301335D
:10423000B2D0230001225D3303201A706CE70029FD
:1042400001D0012E08D12A781A73A36B0133A3631E
:10425000E38F013B9BB2E387012502272E0032E06A
:1042600023689A683A420FD0E28F002A0CD0012DC1
:104270000AD10025A26B12781A73A36B0133A363D2
:10428000E38F013B9BB2E38723689A6811003140BA
:1042900032420FD022000832D08F00280AD00D0001
:1042A0001B7B206C0370236C01332364D38F013B91
:1042B0009BB2D387FEF748FC019BC01A089B98422B
:1042C0000AD30133B5D1E38F002BC9D123000833C2
:1042D000DB8F002BC4D167E7089B002BF3D1A8E745
:1042E00020230120236667E7FFEFFFFF5D300078A2
:1042F000C0B2704730B5EFF31084012282F310880A
:104300000168124D0B682B400B6084F31088EFF3AB
:10431000108482F3108801688B6893438B6084F368
:104320001088036E93420AD1EFF3108183F3108853
:10433000102402681368A343136081F310882022BD
:10434000031DDA6700230366836630BDDFFEFFFFCF
:1043500070B504002569A26801682A436569C369CC
:104360002A4308683E4D1A43284002430A604A68BF
:104370003C48256A0240E06802434A60A2698868B6
:104380002A43394D284002438A60384A914215D168
:104390000321374A126B0A408021013A0902022A9E
:1043A00052D83448805C8B4214D008284AD8FBF796
:1043B000ABFE0C4947494449494934002E4A9142D1
:1043C00040D180221202934240D0FFF7A9FB00287F
:1043D00040D024E0082835D8FBF796FE383408345E
:1043E000053434340900FFF7DBFA31E0234B580081
:1043F000636861685B08C018FBF790FE0200204B01
:10440000103A9A421ED80F23020000079A4393B233
:10441000400F22681843D0601CE0802000026368CF
:1044200061685B081818FBF779FE0200144B103A1C
:104430009A4207D82368D8600CE0FFF7B1FAC6E7C4
:104440000E48ECE7012006E08B42BED1FFF768FB87
:10445000031ECCD100200023A366E36670BDC046D6
:10446000F369FFEFFFCFFFFFFFF4FFFF00380140CC
:1044700000100240F84800080044004000127A0092
:10448000EFFF0000436A30B5DA0706D50168284C13
:104490004A682240846A22434A609A0706D5016826
:1044A000244C4A682240C46A22434A605A0706D50F
:1044B0000168214C4A682240046B22434A601A0773
:1044C00006D501681D4C4A682240446B22434A606D
:1044D000DA0606D501681A4C8A682240846B2243AA
:1044E0008A609A0606D50168164C8A682240C46B19
:1044F00022438A605A0610D50168134D4A68046C3D
:104500002A4022434A6080225203944205D14A68DD
:104510000E4C2240446C22434A601B0606D50268BA
:104520000B4953680B40816C0B43536030BDC04650
:10453000FFFFFDFFFFFFFEFFFFFFFBFFFF7FFFFF12
:10454000FFEFFFFFFFDFFFFFFFFFEFFFFFFF9FFF1B
:10455000FFFFF7FFF7B504000D00170008260093D2
:104560002268D3692B405B1B59424B41BB4201D0AF
:10457000002021E0089B0133F3D0FEF7E5FA009B11
:10458000C01A089B984228D8002B26D00421236803
:104590001A680A42E4D0DA691100314001913242CE
:1045A0000BD020001E62FFF7A5FE23000833DE6754
:1045B0000023012078342370FEBD8022D9691201C6
:1045C0001142CDD01A622000FFF794FE2300202272
:1045D0000833DA67019B783423700320ECE700008E
:1045E0000300F7B5002504000833DD67FEF7ACFAD9
:1045F0002600236807001B6878361B071BD580211F
:10460000264B2A000093890303002000FFF7A2FF36
:10461000A84210D0EFF31081012383F3108880208B
:10462000226813688343136081F310882023E367B3
:1046300035700320FEBD250008CD1B685B0725D51E
:104640008021164B0022009320003B00C903FFF796
:1046500081FF00281AD0EFF31080012282F3108826
:1046600021680F4F0B683B400B6080F31088EFF31D
:10467000108082F3108821688B6893438B6080F3ED
:1046800010882023EB6700233370D2E7002020231B
:10469000E367EB67206660663070CBE7FFFFFF01E2
:1046A000DFFEFFFF10B5041E01D1012010BDC36F56
:1046B000002B04D1020078321370FEF771F9242325
:1046C00001212268E367136820008B431360FFF722
:1046D0003FFE0128E9D0636A002B02D02000FFF7DB
:1046E000D1FE236807495A6820000A402A215A60EF
:1046F0009A688A439A60012219680A431A60FFF790
:104700006FFFD3E7FFB7FFFF0230C38F024A1340AA
:10471000C38700207047C0467F40000084B010B5BA
:104720000400049205930122831C0020DA87D887B5
:10473000A31D5034D8870391208010BC08BC04B05E
:104740001847000070B500260C4D0D4C641BA410DA
:10475000A64209D1002600F021F80A4D0A4C641B3C
:10476000A410A64205D170BDB300EB58984701369E
:10477000EEE7B300EB5898470136F2E7FC48000833
:10478000FC480008FC4800080049000803008218A3
:10479000934200D1704719700133F9E7F8B5C0466C
:1047A000F8BC08BC9E467047F8B5C046F8BC08BCCB
:0447B0009E4670476A
:1047B80064050008340500083405000832050008BF
:1047C800380500083805000880060008320500088A
:1047D800380500088006000838050008320500087A
:1047E8002C0600082C0600082C060008BC06000849
:1047F8001E110008DC100008DC100008D8100008A2
:10480800E2100008E2100008EE130008D8100008B3
:10481800E2100008EE130008E2100008D8100008A3
:104828008213000882130008821300085814000835
:10483800000000000000000000000000564F4C542B
:10484800414A4520286D562900563A00434F525296
:1048580049454E544520286D412900493A00000039
:10486800000000000000E03F9A9999999999A93FA2
:104878007B14AE47E17A743FFCA9F1D24D62403F08
:104888002D431CEBE2360A3FF168E388B5F8D43EC5
:104898008DEDB5A0F7C6A03E48AFBC9AF2D76A3EE8
:1048A8003A8C30E28E79353E95D626E80B2E013EBD
:1048B800BBBDD7D9DF7CCB3D000000000000000065
:1048C80001020304060708090000000001020304AE
:1048D80002030405060708090A0B0C0D0E0F101039
:1048E8000102030405060708090A0B0C0D0E0F1038
:0448F80004080200AE
:0448FC00E9000008C7
:04490000C1000008EA
:0C49040000127A00010000000400000016
:0400000508002A4580
:00000001FF
