:020000040800F2
:1000000000180020B9310008893100088F3100083C
:1000100000000000000000000000000000000000E0
:100020000000000000000000000000009531000802
:1000300000000000000000009F310008A931000806
:1000400039320008393200083932000839320008E4
:1000500039320008393200083932000839320008D4
:1000600039320008393200083932000839320008C4
:1000700039320008393200083932000839320008B4
:10008000393200080000000000000000393200088A
:100090000000000039320008393200083932000807
:1000A00000000000393200083932000839320008F7
:1000B00039320008000000003932000839320008E7
:1000C00010B5064C2378002B07D1054B002B02D02E
:1000D000044800E000BF0123237010BD1000002081
:1000E000000000002C650008044B10B5002B03D065
:1000F0000349044800E000BF10BDC04600000000F6
:10010000140000202C650008002243088B4274D3A1
:1001100003098B425FD3030A8B4244D3030B8B4208
:1001200028D3030C8B420DD3FF22090212BA030C11
:100130008B4202D31212090265D0030B8B4219D3F2
:1001400000E0090AC30B8B4201D3CB03C01A524112
:10015000830B8B4201D38B03C01A5241430B8B425A
:1001600001D34B03C01A5241030B8B4201D30B0343
:10017000C01A5241C30A8B4201D3CB02C01A52416A
:10018000830A8B4201D38B02C01A5241430A8B422D
:1001900001D34B02C01A5241030A8B4201D30B0216
:1001A000C01A5241CDD2C3098B4201D3CB01C01A30
:1001B000524183098B4201D38B01C01A524143093A
:1001C0008B4201D34B01C01A524103098B4201D328
:1001D0000B01C01A5241C3088B4201D3CB00C01A95
:1001E000524183088B4201D38B00C01A524143080D
:1001F0008B4201D34B00C01A5241411A00D2014632
:10020000524110467047FFE701B5002000F0F0F8BA
:1002100002BDC0460029F7D076E7704703460B437E
:100220007FD4002243088B4274D303098B425FD3EF
:10023000030A8B4244D3030B8B4228D3030C8B421B
:100240000DD3FF22090212BA030C8B4202D3121201
:10025000090265D0030B8B4219D300E0090AC30BD6
:100260008B4201D3CB03C01A5241830B8B4201D383
:100270008B03C01A5241430B8B4201D34B03C01A6C
:100280005241030B8B4201D30B03C01A5241C30AE4
:100290008B4201D3CB02C01A5241830A8B4201D355
:1002A0008B02C01A5241430A8B4201D34B02C01A3F
:1002B0005241030A8B4201D30B02C01A5241CDD2E4
:1002C000C3098B4201D3CB01C01A524183098B422F
:1002D00001D38B01C01A524143098B4201D34B0118
:1002E000C01A524103098B4201D30B01C01A52417B
:1002F000C3088B4201D3CB00C01A524183088B4202
:1003000001D38B00C01A524143088B4201D34B00EA
:10031000C01A5241411A00D201465241104670475C
:100320005DE0CA0F00D04942031000D34042534061
:1003300000229C4603098B422DD3030A8B4212D321
:10034000FC22890112BA030A8B420CD38901921153
:100350008B4208D3890192118B4204D389013AD090
:10036000921100E08909C3098B4201D3CB01C01A65
:10037000524183098B4201D38B01C01A5241430978
:100380008B4201D34B01C01A524103098B4201D366
:100390000B01C01A5241C3088B4201D3CB00C01AD3
:1003A000524183088B4201D38B00C01A5241D9D2EB
:1003B00043088B4201D34B00C01A5241411A00D26C
:1003C0000146634652415B10104601D34042002B68
:1003D00000D54942704763465B1000D3404201B5E7
:1003E000002000F005F802BD0029F8D016E770479C
:1003F0007047C0468446100062468C46190063462A
:1004000000E0C0461FB500F0C1FE002801D4002165
:10041000C8421FBD10B500F011FE4042013010BDB2
:1004200010B500F0B3FE002801DB002010BD012054
:1004300010BDC04610B500F0A9FE002801DD002067
:1004400010BD012010BDC04610B500F039FE0028D7
:1004500001DC002010BD012010BDC04610B500F029
:100460002FFE002801DA002010BD012010BDC0467B
:1004700070B500220C4B04000D00FFF7EFFF0028C1
:1004800004D12000290001F0E3FC70BD064B0022DE
:100490002000290001F04AF901F0DAFC80231B0654
:1004A0009C466044F1E7C0460000E041F0B54F468D
:1004B0004646D6464502C0B547000C1C6D0A3F0EA5
:1004C000C60F002F00D170E0FF2F00D175E0EB00C8
:1004D0008025ED041D43002399469A467F3F600224
:1004E000430A984663001B0EE40F002B4ED0FF2BEF
:1004F00046D04246D0008022D204024390460022D9
:100500007F3B3100FF1A4B466140C9B213430F2BAA
:1005100000D9B5E06E489B00C3589F46002398461B
:100520002600454692465346022B00D189E0032B14
:1005300000D19EE0012B18D03B007F33002B69DDFA
:100540006A0704D00F222A40042A00D004352A0169
:1005500003D5604B1D403B008033FE2B00DD70E077
:10056000AD016D0AD8B202E00E0000200025C005E2
:100570002843F6073043E0BCBA46B146A846F0BD72
:100580004346002B3FD10222FF3F03E04346002BAE
:100590002DD1012231004B466140C9B213430F2BCC
:1005A00034D84D489B00C3589F46002D13D10423D7
:1005B0009946033B00279A4691E7002D05D1082371
:1005C0009946063BFF279A4689E70C239946093B43
:1005D000FF279A4683E7280001F0E8FC7627431FAF
:1005E0009D4000237F4299469A463F1A77E740464E
:1005F00001F0DCFC4246431F9A4076235B42904662
:100600001B1A00227DE7FF2303227AE70E00FF205A
:100610000025ACE70120C01A1B28A6DC9E372A0063
:10062000BD40C2406B1E9D4115436B0704D00F2394
:100630002B40042B00D004356B0144D5012000254C
:1006400095E7FF20002592E780250026FF20ED0397
:100650008DE7002398468020C003054209D0434619
:10066000034206D1454605436D022600FF206D0A70
:100670007DE78020C00305436D02FF206D0A76E709
:1006800042466B015001834219D21B220025013FD3
:1006900001261C006D005B00002C01DB984201D894
:1006A0001B1A3543013A002AF3D15A1E93411D43C8
:1006B0003B007F330E00002B00DD41E7AAE71A2242
:1006C00001251B1AE4E7AD0100206D0A4FE7C04683
:1006D00070650008FFFFFFF7B0650008F0B54F46F2
:1006E0004646D64644024500C0B5640A0F1C2D0E8E
:1006F000C60F002D00D18DE0FF2D00D192E0002328
:10070000802099469A46E400C00404437F3D780265
:10071000430A98467B001B0EFF0F002B00D170E0B0
:10072000FF2B00D186E04246D00080227F3BED18AF
:100730000023D204024390469C4631004B46794048
:10074000681C0F2B1CD8764A9B00D3589F46390053
:100750004446E2465346022B0FD0032B00D1D7E08C
:10076000012B37D100200024C0052043C9070843CE
:10077000E0BCBA46B146A846F0BDFF200024F3E72E
:10078000260C2404220C44462404240C434627004F
:100790001B0C574374435A435E4312193B0C9B187E
:1007A0009C4203D980225202944666443F041A04B4
:1007B0003F0CD2199401671EBC411B0C920E9B1971
:1007C00014439B011C431B0100D49BE001236208DE
:1007D0001C40144302007F32002A64DD630704D00A
:1007E0000F232340042B00D00434230103D502003F
:1007F0004C4B80321C40FE2ABFDCA401640AD0B2FC
:10080000B2E74346002B3DD14A4601331A43914695
:100810009C4692E7002C29D104239946033B0025EE
:100820009A4674E7002C1BD108239946063BFF2506
:100830009A466CE74346FF35002B0BD102234A460C
:100840001A4391469C4678E753463100022B00D06C
:1008500083E792E703234A461A4391469C466CE796
:100860000C239946093BFF259A4650E7200001F0EA
:100870009DFB7625431F9C4000236D4299469A4676
:100880002D1A44E7404601F091FB4246431F9A402F
:1008900000232D1A90469C46763D4EE78024002189
:1008A000FF20E40360E701239B1A1B2B00DD59E7BF
:1008B00022009E30DA4084401300621E94411C43A3
:1008C000630704D00F232340042B00D004346301BA
:1008D0001AD50120002447E78020C003044209D034
:1008E0004346034206D14446044364023900FF20D4
:1008F000640A39E78020C003044364023100FF200A
:10090000640A31E7280065E7A4010020640A2BE7A8
:100910008020C00304436402FF20640A24E7C04629
:10092000F0650008FFFFFFF7F8B5002813D0C317E4
:10093000C6185E40C40F300001F038FB9E2305004E
:100940001B1A962B0FDC082801DD083DAE4076020D
:10095000760AD8B202E0002400200026C005304309
:10096000E4072043F8BD992B0CDD05223100121A53
:10097000D1400A00010030001B318840411E8841EF
:1009800002431600052D12DC31000D4F394072076D
:1009900009D00F203040042805D004314A0102D587
:1009A0009F2339405B1B89014E0AD8B2D6E76A1FE4
:1009B00096403100024F39407207F4D0E9E7C04653
:1009C000FFFFFFFBF0B54F464646D6460D0004003C
:1009D000C0B51F0011002803620F400A10437A00BF
:1009E000520DE3003C039146640AFA0F4F0F6E006C
:1009F00027439246B846760DED0FC900954200D1C7
:100A000099E04C46341BA446002C00DC7CE04A46AE
:100A1000002A00D1B8E0C54A964200D11CE18022EC
:100A20003C0012041443A0466246382A00DD61E10E
:100A30001F2A00DDCCE164462022121B444694406C
:100A40000F00A14664469140E7404C464A1E914142
:100A50003C43424621436446E240801A5C1AA3426A
:100A60009B415F42C71B3B0200D4D0E07F027F0A5C
:100A7000002F00D1FFE0380001F098FA010008399A
:100A8000202322005B1A8F40DA408C401743B1428A
:100A900000DAFFE0891B4B1C1F2B00DDA8E02022A1
:100AA0003900D21A200094409140D840621E9441EF
:100AB000DF40002601430C43630709D00F23234086
:100AC000042B05D0231DA342A44164423F191C00FE
:100AD0003B0200D49EE0954B01369E4200D1B7E028
:100AE000934AE40817407B0771057F0223433F0BBD
:100AF0004A0D12053A43ED072A4318001100E0BCE5
:100B0000BA46B146A846F0BD002C4BD04C46A41BBB
:100B1000A446002E00D023E104001C4300D1AFE125
:100B20006246541E012A00D115E2804DAC4500D129
:100B3000C8E1A4461BE14A46B21A9446002A00DCEA
:100B4000ACE04A46002A43D0784A964200D1AFE151
:100B500080223C0012041443A0466246382A67DC17
:100B60001F2A00DC5FE14746203AD7406246202A30
:100B700005D064464022121B4446944021434A1E3D
:100B800091410C003C4357E03A000A4300D105E193
:100B90002200013A012C00D182E1644CA4455BD0D3
:100BA000944641E7634C771C274200D0C4E0040020
:100BB0001C43002E00D069E1002C00D1BFE1444667
:100BC0000C4300D0D0E14207DB081343C00829E002
:100BD0003A000A4300D170E162466446013A012CB2
:100BE00000D1E0E0514CA44500D161E19446B4E766
:100BF0003A001F39CA401100202B03D04022D31ADB
:100C00009F403C43631E9C41002700260C43630722
:100C100000D053E7B446E4087B072343F808434A6F
:100C200094451DD06246070352053F0B520D60E705
:100C300044460C43621E9441E4189C429B415F422F
:100C40003F183B02E3D5394B01369E4200D0B5E058
:100C50003200002700234CE74207DB081343C0089B
:100C60001A00024300D1E1E180273F0307433F031D
:100C70002E4A3F0B3DE7200001F098F901001831A2
:100C80001F2900DCFCE60838844027000024B1421C
:100C900000DBFFE6264A761A17400DE7002A2FD020
:100CA0004A46921B9446002E00D1ADE01F4A914562
:100CB00000D10FE18022120410436246382A00DD81
:100CC0000FE11F2A00DD80E1644620221E00121B76
:100CD0006746040093409440FE405A1E9341F840FA
:100CE00034431C43804464188C42BF417F424E46CB
:100CF0004744A6E742460A4311004A1E9141ADE629
:100D00000C4C721C224200D0A1E002001A43002EBB
:100D100000D0FAE0002A00D145E13A000A4300D0B1
:100D200046E14207DB081343C0087BE7FF070000EA
:100D3000FFFF7FFFFE07000047465C1AC21BA3426D
:100D4000BF417F42B94617004A46BF1A3A0200D552
:100D50008DE023003B4300D08AE60020002561E7B8
:100D6000B44CA14500D1ADE0802424042043644666
:100D7000382C3DDC62461F2C00DDB7E020251E002C
:100D80002D1B0400AB40AC40D640D04042465D1E17
:100D9000AB413443121A904623432CE04207DB0850
:100DA0001343C0083BE75C189C429B4140445B42B4
:100DB000C71801263B0200D429E702269E4A630891
:100DC0001740012214401C43FB071C437F0873E6B5
:100DD0004446203AD4406246202A05D06746402245
:100DE000D21B4746974039434A1E9141214335E67D
:100DF0000343581E8341CC1AA142BF4143467F4260
:100E000055464E46DF1B2EE602001A4300D1BDE0D8
:100E100062466446013A012C00D1E5E0854CA445C8
:100E200058D0944649E764462022121B4446944019
:100E30000F00A14664469140E7404C464A1E91414E
:100E40003C4342460C436146CA408018F4E6794C64
:100E5000A24200D1FDE6591899429B4140445F42AD
:100E6000C719FC07490816000C437F08CFE6CC1AC7
:100E7000A142BF4143467F42181A5546C71BF7E5BA
:100E8000C9087B0755460B43F808C8E6002C00D07C
:100E900081E043460B4315D1802000250003E3E6A3
:100EA0005C1AA3429B41C71B5B420126FF1ADAE58D
:100EB0004207DB081343C008D2E64207DB081343AE
:100EC000C008ACE643464246C9085B0755460B439B
:100ED000D008C5E6434642465B07C9080B43D00825
:100EE000BEE603431C00631E9C41FCE60200203C5E
:100EF000E24014006246202A03D04025AD1AA840E3
:100F00000343581E8341234375E7002AE2D03A0089
:100F10000A43CDD04207DB0813438022C0081203E6
:100F2000104206D0FC08144203D12000CB087A07F7
:100F300013435A0FDB005207DB08134390E6434686
:100F40000B4300D109E743464246C9085B075546B3
:100F50000B43D00866E6CC1AA14289413F1A4942A8
:100F6000554601267F1A7EE542465C1A871AA3423F
:100F700092415242BF1A3A023DD5CC1AA142894150
:100F8000434649421F1A55467F1A95E57B07C90813
:100F90000B43F80843E64446DB080C4330D14207D4
:100FA0001343C0085CE67B07C9080B43F80839E621
:100FB0005C189C429B4140445B42C7183B0200D4F2
:100FC00025E61D4B01261F4021E60400203AD440AF
:100FD0006246202A04D040226646921B904003437A
:100FE0005A1E93411C437EE65C188C428941404462
:100FF00049424718DDE623003B4300D1ADE606E653
:10100000440723438024C0082403204208D04246DA
:10101000D608264204D155463000CB0851070B4371
:101020005A0FDB00DB085207134319E60023014A7D
:101030001F005EE5FF070000FFFF7FFFF0B54E4693
:101040004546DE4657469046E0B517001A03120B98
:101050000500844619480E034C0091465A00DB0FE8
:101060009B46360B640DC90F520D844219D0824243
:1010700010D0012094420ED14E450CD10120C44520
:1010800009D1594517D0002C05D130002843431E03
:10109000984100E00120F0BCBB46B246A946A046FC
:1010A000F0BD330001202B43F5D1A242F3D14B46D2
:1010B0003B43F0D1E2E70020EDE7C046FF07000028
:1010C000F0B54746CE460400180016001B031B0B64
:1010D0002D4D4A00994680B543000F03A446B04603
:1010E0003F0B520DC90F5B0DC00FAA4221D0AB427E
:1010F00013D0002A22D13C43002B02D14D462E436F
:1011000022D0002C10D0814222D002200139084088
:101110000138C0BCB946B046F0BD4D462E4329D17A
:10112000002AF0D13C43EED10028F2D10120404208
:10113000EFE73D0025431DD19342EED0002BE2D1D5
:101140004C462643DFD1E0E70020002CE1D0DCE76D
:101150009A420ADCE8DB4F45D7D80ED000204F4535
:10116000D7D20029E2D00800D3E7434258414000DB
:101170000138CEE702204042CBE7C445C5D8002065
:10118000C445C6D2EDE7C046FF070000F0B54746AC
:10119000CE460400180016001B031B0B2C4D4A0002
:1011A000994680B543000F03A446B0463F0B520D4D
:1011B000C90F5B0DC00FAA420DD0AB4210D0002A60
:1011C00027D13C43002B11D14D462E430ED1002098
:1011D000002C15D00EE03D00254310D1934218D1CC
:1011E0004D462E430BD1002A02D13C43002C0BD09C
:1011F000814214D0022001390840013800E0022069
:10120000C0BCB946B046F0BD0028F9D1012040422B
:10121000F6E7002BECD14C462643E9D1EAE79A42A7
:1012200004DD4342584140000138E9E79A42EBDBD4
:101230004F45DFD806D000204F45E1D20029E5D048
:101240000800DDE7C445D5D80020C445D8D2F5E76D
:10125000FF070000F0B557464E464546DE46E0B56E
:1012600098460C034B000600924687B0240B5B0D9A
:10127000CF0F002B00D15CE1D94A934200D175E138
:10128000420FE4001443802212041443D54AC500DF
:10129000944663440093002399469B464346424646
:1012A0001E03D20F5B0050469046360B5B0D00D1FB
:1012B00020E1CB4A934200D162E1CA49420F8C46F9
:1012C00000996344F6008C46164380229C44120425
:1012D00063461643C2000020009300994346013143
:1012E0008C4649467B4001930F2926D8BE4B890086
:1012F00059588F46434601933400150083465B4698
:10130000022B16D0032B00D103E2012B00D0CDE03D
:10131000002200240025019B12052243DB071A430B
:101320002800110007B0F0BCBB46B246A946A04653
:10133000F0BD00240025AA4AEDE7280C2D042D0C51
:101340002B00110C1204120C5343984613002F006B
:10135000434399464F434F44BB4647460B003F0C1F
:10136000BA464343DA440293D14504D980277F0229
:10137000B9464B44029353461B0C9B4653461F04ED
:1013800043461B041B0C98463B0043440493330C18
:101390003604360C9846330043439946434643434C
:1013A0002F009A46434677435D43380C4D44451918
:1013B000A94503D980235B029946CA443F04280CFF
:1013C0003F0C2D04ED19270C2404240C03002000ED
:1013D00050437A4391463A0053440593030C9A468E
:1013E0004A43614349445144AB44894503D980236E
:1013F0005B0299464A4400040B0C000C09040918CE
:1014000020009946434670435C437E435F43030C90
:101410009846A41944444A440397A64204D9802319
:101420005B029846474403972304029E9A46059B15
:101430005E449846AE42AD4176188E428941000422
:10144000000C504440446D424719B8469346494207
:101450008946C344D94498428041A845AD4193454B
:101460009241894589416D4240422843240C5242B1
:1014700049420A43039B00198018C7184B46DC0DEC
:10148000049B75021D436A1E95414B46F60D7F0273
:1014900035435A023C431543FB0100D41CE10121B2
:1014A0006A080D401543E207154364084F4961443B
:1014B000002900DCB0E06B0709D00F222A40042A83
:1014C00005D02A1DAA42AD416D4264191500E30101
:1014D00004D58021464AC90014406144454A9142DE
:1014E00000DD26E76207ED08640249051543240B79
:1014F0004A0D10E75246324300D17FE0002E00D162
:10150000DCE0300000F052FD02000B3A1D23010028
:101510009B1A52460839DA408E40164352468A409A
:10152000009B3549181A03008C4663440020009341
:10153000D3E6250005434AD0002C00D1B0E02000BE
:1015400000F034FD010002000B391D2310005B1A6E
:101550003100350008388440D94085400C43264886
:10156000831A0093002399469B4697E6050025437E
:1015700026D1082200930223002491469B468DE643
:101580005246009B324310D1154900268C466344D5
:101590004946009302231943894602209DE65B4693
:1015A0000197022B00D0ADE6C3E60D4A0320944616
:1015B00063444A46009303231A43914652468CE6FD
:1015C0000C2200930323050091469B4666E6042304
:1015D000994600230093013300249B465EE6C046F3
:1015E000FF07000001FCFFFF30660008FF0300005A
:1015F000FFFFFFFEFE0700000DFCFFFF4946012331
:10160000194389460026012067E60023802400252F
:10161000434A019324037EE60120401A382800DD66
:1016200076E61F285BDD1F2223005242511ACB4071
:101630001900202803D03B4A6244944025436A1E87
:1016400095412A000A4307210D000024154011424C
:101650005BD00F2100241140042953D0111D914269
:1016600092415242A4180A0023024BD501220024C1
:10167000002550E680231B031C4209D01E4207D1DF
:1016800033431C0343461500240B254A019342E6CD
:101690008022120314432403214A240B01973AE6C3
:1016A00000F084FC01000200153120321C2900DC0E
:1016B0004BE7340008380025844050E700F076FC02
:1016C00003001A00153220301C2A00DC1EE75646A3
:1016D000083B00229E4023E7009B9C46E6E6124919
:1016E000220061442E008D408A40C640691E8D4113
:1016F00032432A43C4405307B6D00F211140042976
:10170000ACD1B1E765076402240BD208154300226F
:1017100001E68022120314432403014A240BFAE554
:10172000FF0700003E0400001E040000F8B5574605
:101730004E464546DE46E0B51E0017004A000B0344
:10174000520D5B0A9046420F1A43CD0FCD4C310328
:10175000C300944670007A0F490AFF009A46B946C2
:10176000400DF60F1143A04200D1B1E001225640D6
:10177000B346B54200D188E04246121A002A00DC86
:10178000AEE0002800D1C1E0BE48804500D151E163
:10179000802000040143382A00DD7BE11F2A00DDA0
:1017A000EEE120203E00801A0C00D640D140874058
:1017B00062468440521A781E874194463443274338
:1017C000DC1BA3429B4162465B42D31A99464B46BF
:1017D0001B0200D418E14B465802430A99464B4677
:1017E000002B00D137E1484600F0E0FB010008394A
:1017F0002023220048465B1ADA4088408C4043464A
:101800001043884500DD36E1C91A4B1C1F2B00DD53
:10181000EAE020222600D21A01009440DE40D8409F
:1018200000239140621E94418146984631430C4307
:10183000630709D00F232340042B05D0231DA342A7
:10184000A4416442A1441C004B461B0200D4DEE0CC
:1018500041468C4B0131994200D1E7E04B468A4822
:10186000E4080340180049055B07400223434A0D82
:10187000040B1205ED0722432A4318001100F0BCA7
:10188000BB46B246A946A046F8BD4246121A002AF7
:1018900052DD002800D19CE0A04500D1CAE08020A4
:1018A00000040143382A00DD49E11F2A00DC97E1EA
:1018B00010000E002038C640202A04D04020821A92
:1018C00091400F43B9464C46621E944134433AE17D
:1018D0000A003A4328D0B346B5422BD06B4A424463
:1018E000002A5DD042464446821A002C00D0F5E022
:1018F00065461D4300D19CE1551E012A00D1FBE144
:10190000604CA24200D1BDE12A00F0E0080038435B
:1019100000D1C3E0501E012A00D1A8E1594CA242D7
:1019200000D187E0020036E701225640B346B542B7
:1019300000D021E7554A4244002A00D1B5E0424692
:101940004446821A002C00D138E14E4EB04200D1FC
:10195000DEE18026644636043443A446382A00DD9E
:1019600096E11F2A00DD24E22026B41AA24664462E
:101970005646B440A1461C004E46D440264334008F
:101980005646B3405E1EB3411C436346D340C9185C
:10199000E419BC42BF417F42B94680468944D8E041
:1019A00040463B4C0130204200D0B4E04046002885
:1019B00000D044E16046184300D190E1080038436C
:1019C00000D0AAE16146DB0849070B436146CC0819
:1019D00027E00800384361D0501E012A00D139E1C8
:1019E000A24227D002005DE702001F39CA40110061
:1019F000202B03D04022D31A98400443631E9C41FD
:101A00000023994698460C43630700D012E74B46E3
:101A10004A46E4085B072343D408424619498A42F0
:101A20000ED024035205240B520D22E70A00002495
:101A300000231EE7DB086246520713436246D408C0
:101A40001A00224300D1FCE1802212031443240334
:101A50000C4A240B0DE7200000F0A8FA0100183111
:101A60001F2900DCC4E608388440434620000024D7
:101A7000884500DCC8E6044A5B1A10409846814657
:101A8000D6E6C046FF070000FFFF7FFF01F8FFFF1B
:101A9000FE0700000F437A1E974191E66146DB087E
:101AA00049070B436146CC08B8E74046D34C0130A8
:101AB000204200D0A2E04046002800D001E160466C
:101AC000184300D15EE10800384300D05FE1614671
:101AD000DB0849070B436146CC08A2E7C84DA84282
:101AE00000D1CFE0802564462D042C43A446382A3B
:101AF00056DC1F2A00DDD1E020251E00AD1A644609
:101B0000AB40AC40D6405D1EAB41344323436446FA
:101B1000D440091B49E06046DC1B461AA3428041C1
:101B20004042814630004E46801B8146000276D4FA
:101B30004B46234300D052E60024002571E7394389
:101B40000C00621E9441E4189C429B415B4263443A
:101B500099464B461B0200D456E701239C46A84BEE
:101B6000E044984538D04B46A6480122034018006F
:101B7000630814401C43C3071C434308994657E6B7
:101B800010000E002038C640202A04D04020821ABF
:101B900091400F43B9464F467A1E974137430FE6AF
:101BA00062461A4313005A1E9341FC1AA742BF41D2
:101BB0007F42CB1B99465D46804608E666461E433B
:101BC00000D1BEE0561E012A00D109E18C4CA24290
:101BD00000D119E13200C1E642460024002348E664
:101BE00020200C00801A3E0087408440D640781E9A
:101BF0008741D14034433C438C44A4E7804A90421F
:101C000000D1E9E0DF199F429B4161445B42C91862
:101C1000CC077F084B08994680463C43F4E6FC1A03
:101C2000A742BF4163467F42C91ACB1B99465D4616
:101C3000D5E5FF084B075D463B43CC08EEE6624620
:101C40001A4300D082E00B003B431BD180240025C7
:101C50002403F9E6DC199C429B41614489465B42BE
:101C600099444B461B0244D401239846CCE6DC1B26
:101C70006246A3429B41511A5B42CB1A994601230B
:101C80009846A4E5FF084B075D463B43CC08D7E6E2
:101C900062461A431400631E9C4179E615006446AF
:101CA000203DEC40A046202A05D040256446AA1AD3
:101CB000944023439A465446631E9C414346234323
:101CC00073E762461A4323D00A003A4300D0A0E0EB
:101CD0006246DB08520713436246D408B0E60B00A5
:101CE0003B4300D128E7FF084B075D463B43CC0848
:101CF00097E60223984636E7FC1AA742BF4163469F
:101D00007F42C91ACB1B994601235D4698465EE582
:101D10004B07FF083B43CC0892E6DC1B6046A3421E
:101D2000B641401A7642801B8146000260D5FC1AFB
:101D3000A742BF4163467F42C91ACB1B99465D4605
:101D400076E5FF084B073B43CC0867E60A00DB0853
:101D50003A4300D16FE66246520713436246D40805
:101D600080221203144207D0C808104204D15D46F5
:101D70000400FB0849070B435A0FDB00DB0852073E
:101D800013435DE64B07FF083B43CC0849E6DC19EB
:101D90009C429B41614489465B4299444B461B02ED
:101DA00000D431E64A46174B1A4001239146984623
:101DB0002AE616006446203EF440A046202A05D0BC
:101DC00040266446B21A944023439A465446631E02
:101DD0009C4143461C43DBE502000024002348E508
:101DE000DC19BC42BF41614489467F42B94438E7AF
:101DF0004B46234300D19FE606E6C046FE0700009F
:101E0000FF070000FFFF7FFFFF084B073B43CC08A5
:101E100016E66246DB08520713436246D408802266
:101E20001203144207D0C808104204D15D460400D2
:101E3000FB0849070B435A0FDB005207DB0813432B
:101E4000FEE50023014A1C0013E5C046FF07000021
:101E50000A0030B5134C530009030500090B00209C
:101E60005B0DD20FA34204DD0F48834202DD0F4B0E
:101E7000D01830BD8020400301430D48C01A1F28F0
:101E800008DD0C48C31AD9400B005842002AF0D193
:101E90001800EEE7084CC540A446634499400B0087
:101EA0002B43F2E7FE0300001D040000FFFFFF7F4D
:101EB0003304000013040000EDFBFFFF70B50028A1
:101EC00016D0C317C5185D40C40F280000F06EF887
:101ED000114A121A0A2816DC03002E0015339E4000
:101EE0000B23181AC54052052D032D0B530D03E08B
:101EF00000240023002500261B052B43E407234371
:101F00003000190070BD0B38854052052D030026A6
:101F10002D0B530DF0E7C0461E04000070B54300C2
:101F20004602C40FFE201B0E591C750A08420CD035
:101F3000E022920094466D07360B63441B05334341
:101F4000E40723432800190070BD002B14D1002D95
:101F50001BD0280000F02AF80A281CDC0B232E00D6
:101F60001B1ADE40030015339D400E4A3603121A39
:101F70005205360B530DE1E7002D09D08022360BB8
:101F80001203094B6D071643D8E700230026D5E757
:101F90000026054BD2E703000B3B9D402E00002599
:101FA000E3E7C04689030000FF0700001C2101236E
:101FB0001B04984201D3000C10391B0A984201D32C
:101FC000000A08391B09984201D30009043902A20A
:101FD000105C40187047C046040302020101010171
:101FE000000000000000000080B584B000AF786001
:101FF0000023FB601EE0C046C046C046C046C04647
:10200000C046C046C046C046C046C046C046C046A0
:10201000C046C046C046C046C046C046C046C04690
:10202000C046C046C046C046C046C046C046FB6823
:102030000133FB60FA687B689A42DCD3C046C04635
:10204000BD4604B080BD000080B582B000AF3B004B
:1020500000221A70BB1D10221A80BB1D1B881B0A90
:102060009BB2DAB23B005A70BB1D1B88DAB23B0050
:102070009A709023DB0500221021180001F086FBE6
:102080000120FFF7B1FF01235B42390041480322E1
:1020900003F05CF9C0463F4B180003F099FC0300C5
:1020A000012BF8D10120FFF79FFF9023DB050122D0
:1020B0001021180001F06AFB012001F027F93B0014
:1020C00004221A70BB1D344A1A80BB1D1B881B0AD0
:1020D0009BB2DAB23B005A70BB1D1B88DAB23B00E0
:1020E0009A709023DB0500221021180001F04EFBAE
:1020F0000120FFF779FF01235B42390025480322C5
:1021000003F024F9C046234B180003F061FC0300E0
:10211000012BF8D10120FFF767FF9023DB05012297
:102120001021180001F032FB012001F0EFF83B0014
:1021300008221A703B0010225A703B0000229A704D
:102140009023DB0500221021180001F01FFB012065
:10215000FFF74AFF01235B4239000E48032203F0D8
:10216000F5F8C0460B4B180003F032FC0300012BBE
:10217000F8D10120FFF738FF9023DB050122102161
:10218000180001F003FB012001F0C0F8C046BD4675
:1021900002B080BD8C00002007A1FFFF80B586B093
:1021A00002AF274B1D221A70254B00225A70244B78
:1021B00000229A70224B0022DA709023DB05002265
:1021C0001021180001F0E2FA0120FFF70DFF1D4A6F
:1021D0001B491D4801235B420093042303F016FAB8
:1021E000C046194B180003F0F3FB0300012BF8D194
:1021F0000120FFF7F9FE9023DB05012210211800D2
:1022000001F0C4FA0F4B5B78DBB21A040D4B9B78DC
:10221000DBB21B0213430B4AD278D2B213431B1119
:10222000BB60DB17FB60BB68802212035340074A88
:10223000944663447B607B681800BD4604B080BD53
:102240002C000020300000208C0000200000F8FF4F
:1022500080B582B000AF78607B68180001F056F856
:10226000C046BD4602B080BD80B582B000AF786088
:10227000012001F04BF8C046BD4602B080BD000011
:1022800080B582B000AF0200FB1D1A7001235B42D3
:10229000F91D0448012203F059F8C046BD4602B0BA
:1022A00080BDC0468C00002080B582B000AF020027
:1022B000FB1D1A70114B802212019A613220FFF728
:1022C000D3FFF820FFF7DCFFFB1D1B780F229343A1
:1022D000DBB21800FFF7D4FFFB1D1B781B01DBB23C
:1022E0001800FFF7CDFF3220FFF7BEFF034B80221F
:1022F00012059A61C046BD4602B080BD0004004888
:1023000080B582B000AF0200FB1D1A70104B802216
:1023100012019A61FA20FFF7B3FFFB1D1B780F2211
:102320009343DBB21800FFF7ABFFFB1D1B781B01CB
:10233000DBB21800FFF7A4FF3220FFF795FF044B34
:10234000802212059A61C046BD4602B080BDC046DB
:102350000004004880B500AF9023DB058022D20244
:102360009A610A20FFF774FF9023DB0504229A612B
:102370003220FFF76DFF3020FFF796FF6E20FFF74A
:1023800073FF3020FFF790FF2820FFF76DFF082034
:10239000FFF78AFF6E20FFF767FF0120FFF784FF3A
:1023A0000C20FFF755FF0620FFF77EFF0120FFF707
:1023B0004FFF0C20FFF778FF0120FFF749FF0220B5
:1023C000FFF772FF0120FFF743FFC046BD4680BD07
:1023D00080B584B000AFF860B9607A60FB68032B09
:1023E0001ED0FB68032B20DCFB68022B13D0FB689C
:1023F000022B1ADCFB68002B03D0FB68012B05D0F5
:1024000013E0BB6880221343BB6013E0BB689022DB
:102410001343BB600EE0BB6888221343BB6009E036
:10242000BB6898221343BB6004E0BB68802213435F
:10243000BB60C046BB68DBB21800FFF735FF06E0A3
:102440007B685A1C7A601B781800FFF759FF7B687D
:102450001B78002BF4D1C046C046BD4604B080BDF9
:1024600090B587B002AF040008001100FB1D221CCC
:102470001A70BB1D021C1A703B1D0A1C1A800C210D
:102480007B18BA1D12781A703B1D1B881B0A9BB261
:10249000DAB27B185A703B1D1B88DAB208007B1831
:1024A0009A70FB1D1B7899B23A18054801235B42CC
:1024B0000093032301F01EFAC046BD4605B090BD4F
:1024C0003800002080B500AF064BA82252011A80C8
:1024D000044B1B881A0001219020FFF7C1FFC04662
:1024E000BD4680BD3400002080B582B000AF020040
:1024F000FB1D1A700C4B1B881BB25B045B0C1AB2E1
:10250000FB1D1B78DB031BB213431BB29AB2064BB5
:102510001A80054B1B881A0001219020FFF7A0FFAD
:10252000C046BD4602B080BD3400002080B582B0F8
:1025300000AF0200FB1D1A700C4B1B881BB20C4A2B
:1025400013401AB2FB1D1B781B031BB213431BB2B3
:102550009AB2064B1A80054B1B881A000121902065
:10256000FFF77EFFC046BD4602B080BD34000020AC
:10257000FF8FFFFF80B582B000AF0200FB1D1A7015
:102580000C4B1B881BB20C4A13401AB2FB1D1B7864
:102590001B021BB213431BB29AB2064B1A80054BA7
:1025A0001B881A0001219020FFF75AFFC046BD4644
:1025B00002B080BD34000020FFFEFFFFB0B58AB03E
:1025C00000AFB860F9607A603B607B687B627B6AD1
:1025D0003B623B680A2B01DD0A233B60002200239B
:1025E000B868F968FDF71CFF031E0DD0BB681C001E
:1025F000FB68802212065A401500BC60FD607B6AB1
:102600005A1C7A622D221A703B68002B43DA002292
:10261000724BB868F968FDF703FF031E02D006236A
:102620003B6038E000226E4BB868F968FDF7F8FEB1
:10263000031E02D005233B602DE00022694BB868E1
:10264000F968FDF7EDFE031E02D004233B6022E093
:102650000022654BB868F968FDF7E2FE031E02D060
:1026600003233B6017E00022604BB868F968FDF770
:10267000D7FE031E02D002233B600CE000225C4B1D
:10268000B868F968FDF7CCFE031E02D001233B6059
:1026900001E000233B603B68002B0DD0554A3B68AE
:1026A000DB00D3181A685B68B868F968FEF78AF926
:1026B00002000B00BA60FB60B868F968FFF7C8FB5E
:1026C0000300FB61F869FFF7F9FB02000B00B86833
:1026D000F968FFF72BF802000B00BA60FB60FB699A
:1026E000002B05D17B6A5A1C7A6230221A7034E0C2
:1026F0007B6A3B6213E0FB690A211800FDF774FE58
:102700000B00DAB23B6A591C39623032D2B21A700D
:10271000FB690A211800FDF781FD0300FB61FB69DD
:10272000002BE8D13B6ABB6111E03B6A013B3B6295
:1027300017217B183A6A12781A707B6A1A783B6AFA
:102740001A707B6A5A1C7A627A1812781A703A6A7E
:102750007B6A9A42E9D8BB697B623B68002B34D024
:102760007B6A5A1C7A622E221A7029E000221C4BC6
:10277000B868F968FEF76EFD02000B00BA60FB60F6
:1027800017257C19B868F968FDF772FE03002370FD
:102790007B6A5A1C7A6229007A1812783032D2B2D7
:1027A0001A707B181B781800FFF788FB02000B00DB
:1027B000B868F968FEF7BAFF02000B00BA60FB6068
:1027C0003B685A1E3A60002BD0D17B6A00221A70F7
:1027D0007B681800BD460AB0B0BDC0460000F03F9F
:1027E000000024400000594000408F400088C34052
:1027F000006AF8407066000880B58CB004AF00F045
:1028000021FD00F0F3F800F065FA00F03DFA00F069
:102810004FF900F08DF900F0C9F900F005FA9023A6
:10282000DB0501220821180000F0B0FF624B0222F4
:102830001A61614B180002F0D1FC031E01D000F0B8
:102840001BFBFFF787FD642000F060FD5B4B1A0067
:1028500000210020FFF7BCFD594B1A000021012088
:10286000FFF7B6FD574B1A0000210220FFF7B0FD1D
:10287000554B1A0000210320FFF7AAFD4E4B002202
:102880001A614D4B180002F0A9FC031E01D000F0A4
:10289000F3FAFFF7D9FBFFF715FE0120FFF746FE1D
:1028A0000120FFF721FE0020FFF764FE47480123C7
:1028B0005B42029302230193454B009301230022C4
:1028C000902101F01FF9424B1B789BB21B029AB278
:1028D0003F4B5B789BB2D3189BB21AB23D4B1A8028
:1028E0003C4B00229B5E1800FEF71EF8031CC5211E
:1028F0000906181CFDF7F2FE031C8E21C905181CE1
:10290000FDF7D4FD031C181CFFF708FB02000B00A9
:1029100031490A604B60304B186859683A0003230C
:10292000FFF74CFE3B001A0001210120FFF750FD8C
:10293000214B00221A61204B180002F04FFC031EAD
:1029400001D000F099FAFFF729FC03001800FFF707
:10295000B5FA224A224BFEF77DFC02000B0021490A
:102960000A604B601F4B1868596800221E4BFEF727
:1029700071FC02000B001B490A604B600E4B0222E7
:102980001A610D4B180002F029FC031E01D000F063
:1029900073FA144B186859683A000323FFF70EFEC8
:1029A0003B001A0001210320FFF712FDFA23DB0090
:1029B000180000F0ABFC79E78C00002048650008A7
:1029C000586500085C6500086C6500083800002048
:1029D000DC040020D8040020E00400202D431CEB80
:1029E000E236BA3ED004002000408F4090B599B046
:1029F00000AF2C243B19180034231A00002103F0E7
:102A00008DFD1C23FB18180010231A00002103F071
:102A100085FD3B1D180018231A00002103F07EFDE0
:102A200021007B1822221A607B180122DA607B18B1
:102A300001221A627B1810221A617B1800225A6246
:102A40007B18180001F0EAFD031E01D000F014FA13
:102A50001C217B1807221A607B1803225A607B18FE
:102A600000229A607B180022DA607B18012118008E
:102A700002F05AF9031E01D000F0FEF93B1D0B4A8B
:102A80001A603B1D00229A603B1D0022DA603B1D4C
:102A900000225A613B1D180002F0B2FA031E01D059
:102AA00000F0EAF9C046BD4619B090BD2100020011
:102AB00080B500AF1B4B1C4A1A601A4B1B4A5A6068
:102AC000184B00229A60174B0122DA60154B002246
:102AD0001A61144B00225A61124B00229A61114B69
:102AE0000022DA610F4B00221A620E4B180000F030
:102AF0006BFE031E01D000F0BFF90A4B0021180045
:102B000001F0CAFB031E01D000F0B6F9054B00210D
:102B1000180001F00DFC031E01D000F0ADF9C04615
:102B2000BD4680BD38000020005400400E09002042
:102B300080B500AF1B4B1C4A1A601A4B8222520010
:102B40005A60184B00229A60164BE022D200DA60DD
:102B5000144B00221A61134B01225A61114B80223F
:102B600092009A610F4B3822DA610E4B00221A62F2
:102B70000C4B00225A620B4B00229A62094B07222F
:102B8000DA62084B00221A63064B00225A63054B97
:102B9000180002F023FB031E01D000F06DF9C046BF
:102BA000BD4680BD8C0000200030014080B500AFE4
:102BB0001B4B1C4A1A601A4B822252005A60184B57
:102BC00000229A60164BE022D200DA60144B0222F7
:102BD0001A61134B00225A61114B802292009A61B4
:102BE0000F4B2822DA610E4B00221A620C4B002296
:102BF0005A620B4B00229A62094B0722DA62084B99
:102C000000221A63064B08225A63054B180002F093
:102C1000E5FA031E01D000F02FF9C046BD4680BD85
:102C2000F00000200038004080B500AF144B154A7A
:102C30001A60134B962212025A60114B00229A60BE
:102C40000F4B0022DA600E4B00221A610C4B0C2253
:102C50005A610B4B00229A61094B0022DA61084B42
:102C600000221A62064B00225A62054B180003F03C
:102C700031F8031E01D000F0FFF8C046BD4680BD0C
:102C8000540100200038014080B500AF0F4B104ABE
:102C90001A600E4B08225A600C4B02229A600B4BB2
:102CA00002221A61094B00229A61084B0022DA6164
:102CB000064B00221A62054B180001F085FB031E2B
:102CC00001D000F0D9F8C046BD4680BDDC0100202F
:102CD000005C004090B58BB000AF14243B19180085
:102CE00014231A00002103F019FC5C4B5A695B4B5A
:102CF000802109030A435A61584B5A6980231B03F8
:102D000013403B613B69554B5A69544B8021C903C1
:102D10000A435A61514B5A698023DB031340FB601D
:102D2000FB684E4B5A694D4B802189020A435A6118
:102D30004A4B5A6980239B021340BB60BB68474BD8
:102D40005A69464B8021C9020A435A61434B5A696A
:102D50008023DB0213407B607B6841499023DB05C5
:102D60000022180000F012FD9023DB050122102143
:102D7000180000F00BFD3B493B4B0022180000F00F
:102D800005FD3B19E02212021A603B1900225A602D
:102D90003B1901229A603B19344A1900100000F0D7
:102DA0008DFB3B192E4A1A603B1901225A603B19D0
:102DB00000229A603B190022DA603A199023DB0561
:102DC0001100180000F07AFB3B1910221A603B1921
:102DD00001225A603B1900229A603B190322DA60F3
:102DE0003A199023DB051100180000F067FB3B192E
:102DF0001C4A1A603B1901225A603B1900229A6052
:102E00003B190022DA603B19174A1900100000F044
:102E100055FB3B19164A1A603B1900225A603B19B0
:102E200001229A603B19104A1900100000F046FB7D
:102E300021007B18802212011A607B1800225A6040
:102E40007B1801229A607B180A4A1900100000F0D2
:102E500035FBC046BD460BB090BDC04600100240D9
:102E60000F8100000F2800000004004800080048FF
:102E7000301300000014004880B500AF72B6C046A1
:102E8000FEE7000080B582B000AF0F4B9A690E4B91
:102E900001210A439A610C4B9B69012213407B601C
:102EA0007B68094BDA69084B802149050A43DA61DE
:102EB000054BDA6980235B0513403B603B68C046E5
:102EC000BD4602B080BDC0460010024090B58BB038
:102ED00000AF786014243B19180014231A00002155
:102EE00003F01CFB7B681B681C4A934231D11C4BCE
:102EF0005A691B4B8021C9020A435A61184B5A690F
:102F00008023DB0213403B613B6921007B18C02218
:102F10001A607B1812225A607B1800229A607B1874
:102F20000322DA607B1801221A617B180D4A19000E
:102F3000100000F0C3FA0A4BDA69094B80218903BB
:102F40000A43DA61064BDA6980239B031340FB6076
:102F5000FB68C046BD460BB090BDC0460054004063
:102F6000001002400004004890B58DB000AF7860BA
:102F70001C243B19180014231A00002103F0CEFA78
:102F80007B681B68454A934233D1454B9A69444B51
:102F9000802149010A439A61414B9A6980235B0170
:102FA0001340BB61BB693E4B5A693D4B802189028E
:102FB0000A435A613A4B5A6980239B0213407B6152
:102FC0007B6921007B18E0221A607B1802225A607C
:102FD0007B1800229A607B180322DA607B1800229B
:102FE0001A617A189023DB051100180000F066FAC8
:102FF0004FE07B681B682B4A93424AD1284BDA6921
:10300000274B8021C9010A43DA61254BDA69802305
:10301000DB0113403B613B69214B5A69204B802106
:10302000C9020A435A611E4B5A698023DB021340CE
:10303000FB60FB681C217B188022D2001A600C0008
:103040003B1902225A603B1900229A603B19032265
:10305000DA603B1905221A613B19134A1900100066
:1030600000F02CFA21007B18C02212021A607B1893
:1030700002225A607B1800229A607B180322DA60D1
:103080007B1800221A617B18074A1900100000F013
:1030900015FAC046BD460DB090BDC0460030014097
:1030A00000100240003800400004004890B58BB08A
:1030B00000AF786014243B19180014231A00002173
:1030C00003F02CFA7B681B681D4A934233D11D4BD9
:1030D0009A691C4B8021C9010A439A61194B9A696C
:1030E0008023DB0113403B613B69164B5A69154B4A
:1030F000802189020A435A61124B5A6980239B023C
:103100001340FB60FB683B19C022D2001A6021000B
:103110007B1802225A607B1800229A607B180322D7
:10312000DA607B1801221A617A189023DB051100FE
:10313000180000F0C3F9C046BD460BB090BDC046B4
:10314000003801400010024080B584B000AF7860C4
:103150007B681B680A4A93420DD10A4BDA69094B16
:10316000802109040A43DA61064BDA6980231B04D3
:103170001340FB60FB68C046BD4604B080BDC0463E
:10318000005C00400010024080B500AFFEE780B553
:1031900000AFFEE780B500AFC046BD4680BD80B53C
:1031A00000AFC046BD4680BD80B500AF00F092F8CC
:1031B000C046BD4680BD00001348854600F03DF87E
:1031C00012480168090E124A914205D1114812496C
:1031D000016012481249016012481349134A002342
:1031E00002E0D458C4500433C4188C42F9D3104AB6
:1031F000104C002301E013600432A242FBD303F021
:1032000069F9FFF7F9FAFEE7001800200400000052
:103210001F000000181002400100000000000140E3
:1032200000000000000000200C00002008670008DB
:1032300010000020EC040020FEE780B500AFC0467F
:10324000BD4680BD80B500AF074B1A68064B102104
:103250000A431A60032000F009F8FFF713FE002369
:103260001800BD4680BDC0460020024090B583B026
:1032700000AF7860144B1C68144B1B781900FA23BC
:103280009800FCF741FF030019002000FCF73CFF09
:103290000300180000F005F9031E01D001230FE020
:1032A0007B68032B0BD8796801235B42002218004E
:1032B00000F0E2F8064B7A681A60002300E0012370
:1032C0001800BD4603B090BD00000020080000209B
:1032D0000400002080B500AF054B1B781A00054B99
:1032E0001B68D218034B1A60C046BD4680BDC0465D
:1032F00008000020E804002080B500AF024B1B68E6
:103300001800BD4680BDC046E804002080B584B0EA
:1033100000AF7860FFF7F0FF0300BB607B68FB60E5
:10332000FB68013305D00A4B1B781A00FB689B1819
:10333000FB60C046FFF7E0FF0200BB68D31AFA68E3
:103340009A42F7D8C046C046BD4604B080BDC046CC
:103350000800002090B583B000AF02003960FB1D6B
:103360001A70FB1D1B787F2B28D82F4AFB1D1B785A
:103370005BB29B08C0339B009B58FA1D127811006A
:1033800003220A40D200FF2191400A00D2431A4092
:1033900011003B689B01FF221A40FB1D1B7818009F
:1033A00003230340DB009A401F48FB1D1B785BB2E0
:1033B0009B080A43C0339B001A5031E01B4AFB1D97
:1033C0001B7819000F230B40083B9B0806339B001A
:1033D000D31804331B68FA1D1278110003220A4027
:1033E000D200FF2191400A00D2431A4011003B68ED
:1033F0009B01FF221A40FB1D1B781800032303408A
:10340000DB009A400948FB1D1B781C000F2323405A
:10341000083B9B080A4306339B00C31804331A6019
:10342000C046BD4603B090BD00E100E000ED00E005
:1034300080B582B000AF78607B685A1E80235B0441
:103440009A4201D3012310E00A4B7A68013A5A608C
:1034500001235B4203211800FFF77CFF054B00228C
:103460009A60044B07221A6000231800BD4602B080
:1034700080BDC04610E000E080B584B000AFB96008
:103480007A600F217B18021C1A70BA687B181B78AF
:103490005BB211001800FFF75DFFC046BD4604B0E7
:1034A00080BD80B582B000AF78607B681800FFF700
:1034B000BFFF03001800BD4602B080BD80B586B0D6
:1034C00000AF7860396000237B6149E13B681B688D
:1034D00001217A6991400A001340FB60FB68002BD0
:1034E00000D13AE13B685B6803221340012B05D011
:1034F0003B685B6803221340022B30D17B689B68DA
:103500003B617B695B0003229A401300DA433B690D
:1035100013403B613B68DA687B695B009A401300AB
:103520003A6913433B617B683A699A607B685B68E0
:103530003B6101227B699A401300DA433B691340E7
:103540003B613B685B681B0901221A407B699A401A
:1035500013003A6913433B617B683A695A603B68E0
:103560005B6803221340032B17D07B68DB683B6149
:103570007B695B0003229A401300DA433B691340E6
:103580003B613B689A687B695B009A4013003A692B
:1035900013433B617B683A69DA603B685B680322EE
:1035A0001340022B23D17B69DA087B680832920032
:1035B000D3583B617B69072213409B000F229A403E
:1035C0001300DA433B6913403B613B681A697B692E
:1035D00007210B409B009A4013003A6913433B615B
:1035E0007B69DA087B68083292003969D1507B68C0
:1035F0001B683B617B695B0003229A401300DA433E
:103600003B6913403B613B685B6803221A407B695E
:103610005B009A4013003A6913433B617B683A6947
:103620001A603B685A68C0239B02134000D194E0A3
:10363000514B9A69504B01210A439A614E4B9B6949
:1036400001221340BB60BB684C4A7B699B08023374
:103650009B009B583B617B69032213409B000F2218
:103660009A401300DA433B6913403B617A68902328
:10367000DB059A420DD07B68414A934207D07B68B4
:10368000404A934201D1022304E0052302E00123D2
:1036900000E000237A6903210A40920093403A69CE
:1036A00013433B6135497B699B0802339B003A69B0
:1036B0005A50354B9B683B61FB68DA433B691340CA
:1036C0003B613B685A6880235B03134003D03A692F
:1036D000FB6813433B612C4B3A699A602A4BDB68C9
:1036E0003B61FB68DA433B6913403B613B685A68C6
:1036F00080239B03134003D03A69FB6813433B616B
:10370000214B3A69DA60204B5B683B61FB68DA4326
:103710003B6913403B613B685A6880239B0213401E
:1037200003D03A69FB6813433B61174B3A695A600F
:10373000154B1B683B61FB68DA433B6913403B61F7
:103740003B685A6880235B02134003D03A69FB68E8
:1037500013433B610C4B3A691A607B6901337B610F
:103760003B681A687B69DA40131E00D0AEE6C0469B
:10377000C046BD4606B080BD0010024000000140BA
:1037800000040048000800480004014080B582B0F1
:1037900000AF786008001100BB1C021C1A807B1C63
:1037A0000A1C1A707B1C1B78002B04D0BB1C1A88C7
:1037B0007B689A6103E0BB1C1A887B689A62C046EA
:1037C000BD4602B080BD000080B582B000AF786019
:1037D0007B68002B01D1012382E07B6841229B5C46
:1037E000DBB2002B07D17B684022002199547B6813
:1037F0001800FFF76BFB7B684122242199547B68FA
:103800001B681A687B681B6801218A431A607B6801
:103810005A687B681B6834490A401A617B681B68D8
:103820009A687B681B6831490A409A607B68DB684C
:10383000012B08D17B689A687B681B68802109028C
:103840000A439A6007E07B689A687B681B6884215A
:1038500009020A439A607B68DB68022B04D17B680B
:103860001B68802212015A607B681B685A687B685B
:103870001B681F490A435A607B681B68DA687B68CB
:103880001B681A490A40DA607B681A697B685B69C1
:103890001A4311007B689B691A027B681B680A4304
:1038A000DA607B68D9697B681A6A7B681B680A439F
:1038B0001A607B681B681A687B681B6801210A43D1
:1038C0001A607B6800225A647B6841222021995447
:1038D0007B6800221A637B684222002199540023EE
:1038E0001800BD4602B080BDFFFFFFF0FF7FFFFF65
:1038F0000080000290B589B002AFF86008007A60DD
:1039000019000A23FB18021C1A800823FB180A1C42
:103910001A80FB6841229B5CDBB2202B00D0E7E0E1
:10392000FB6840229B5C012B01D10223E1E0FB6894
:10393000402201219954FFF7DFFC03007B618023C3
:103940001902F8687B6900931923012200F092FAAA
:10395000031E01D00123CCE0FB68412221219954B0
:10396000FB68422210219954FB6800225A64FB68CC
:103970007A685A62FB680822BA1812885A85FB686E
:1039800000225A63FB685B8D9BB2FF2B11D9FB6849
:10399000FF221A85FB681B8DDAB280235C040A23A0
:1039A000FB181988F868554B0093230000F03AFC87
:1039B00075E0FB685B8D9AB2FB681A85FB681B8D0E
:1039C000DAB280239C040A23FB181988F8684B4B51
:1039D0000093230000F026FC61E07A69B96AFB6875
:1039E000180000F095FA031E01D0012381E0FB6866
:1039F0005B6A1A78FB681B689A62FB685B6A5A1CF0
:103A0000FB685A62FB685B8D9BB2013B9AB2FB6814
:103A10005A85FB681B8D013B9AB2FB681A85FB68CF
:103A20005B8D9BB2002B3AD0FB681B8D002B36D1EF
:103A3000BA6AF8687B69009313000022802100F0C5
:103A400019FA031E01D0012353E0FB685B8D9BB282
:103A5000FF2B11D9FB68FF221A85FB681B8DDAB298
:103A600080235C040A23FB181988F868002300935C
:103A7000230000F0D7FB12E0FB685B8D9AB2FB6875
:103A80001A85FB681B8DDAB280239C040A23FB187D
:103A90001988F86800230093230000F0C3FBFB683B
:103AA0005B8D9BB2002B98D17A69B96AFB681800CC
:103AB00000F074FA031E01D001231AE0FB681B68B2
:103AC0002022DA61FB681B685A68FB681B680C4996
:103AD0000A405A60FB68412220219954FB68422227
:103AE00000219954FB68402200219954002300E0F2
:103AF00002231800BD4607B090BDC04600200080DC
:103B000000E800FE90B589B002AFF8600C0010002C
:103B100019000A23FB18221C1A800823FB18021C18
:103B20001A80BB1D0A1C1A80FB6841229B5CDBB219
:103B3000202B00D010E1BB6A002B04D02C23FB18F3
:103B40001B88002B05D1FB68802292005A64012358
:103B500003E1FB6840229B5C012B01D10223FCE0C6
:103B6000FB68402201219954FFF7C6FB03007B61EB
:103B700080231902F8687B6900931923012200F061
:103B800079F9031E01D00123E7E0FB6841222221DD
:103B90009954FB68422240219954FB6800225A64E0
:103BA000FB68BA6A5A62FB682C22BA1812885A85D6
:103BB000FB6800225A63BB1D1C880823FB181A8867
:103BC0000A23FB181988F8687B6901933B6B009303
:103BD000230000F0CBF8031E05D0FB684022002133
:103BE00099540123B9E0FB685B8D9BB2FF2B11D97F
:103BF000FB68FF221A85FB681B8DDAB280235C0408
:103C00000A23FB181988F868564B0093230000F02C
:103C100009FB12E0FB685B8D9AB2FB681A85FB68B2
:103C20001B8DDAB280239C040A23FB181988F868DC
:103C30004C4B0093230000F0F5FA3A6BF8687B696F
:103C4000009313000022042100F014F9031E01D098
:103C5000012382E0FB681B685A6AFB685B6AD2B288
:103C60001A70FB685B6A5A1CFB685A62FB681B8D02
:103C7000013B9AB2FB681A85FB685B8D9BB2013BE6
:103C80009AB2FB685A85FB685B8D9BB2002B3AD0D9
:103C9000FB681B8D002B36D13A6BF8687B6900936B
:103CA00013000022802100F0E5F8031E01D001235B
:103CB00053E0FB685B8D9BB2FF2B11D9FB68FF22A1
:103CC0001A85FB681B8DDAB280235C040A23FB187B
:103CD0001988F86800230093230000F0A3FA12E08B
:103CE000FB685B8D9AB2FB681A85FB681B8DDAB2A4
:103CF00080239C040A23FB181988F868002300938A
:103D0000230000F08FFAFB685B8D9BB2002B94D1EF
:103D10007A69396BFB68180000F040F9031E01D086
:103D200001231AE0FB681B682022DA61FB681B682C
:103D30005A68FB681B680C490A405A60FB684122BC
:103D400020219954FB68422200219954FB684022AB
:103D500000219954002300E002231800BD4607B05B
:103D600090BDC0460024008000E800FEB0B586B0DB
:103D700002AFF8600C00100019000A257B19221C04
:103D80001A800823FB18021C1A80BB1D0A1C1A800B
:103D9000BB1D1B88DAB27B191988F868234B009386
:103DA000002300F03FFA7A6A396AFB68180000F0D5
:103DB000AFF8031E01D0012333E0BB1D1B88012B8C
:103DC00007D10823FB181B88DAB2FB681B689A62CC
:103DD00019E00823FB181B881B0A9BB2DAB2FB68A8
:103DE0001B689A627A6A396AFB68180000F090F8DA
:103DF000031E01D0012314E00823FB181B88DAB24C
:103E0000FB681B689A623A6AF8687B6A0093130041
:103E10000022402100F02EF8031E01D0012300E013
:103E200000231800BD4604B0B0BDC046002000808D
:103E300080B582B000AF78607B681B689B69022206
:103E40001340022B03D17B681B6800229A627B68B7
:103E50001B689B6901221340012B07D07B681B68FC
:103E60009A697B681B6801210A439A61C046BD4676
:103E700002B080BD80B584B000AFF860B9603B602F
:103E8000FB1D1A7030E03B6801332DD0FFF734FA88
:103E90000200BB69D31A3A689A4202D33B68002BEE
:103EA00022D1FB681B689B69BA681340BA68D31AB1
:103EB0005A425341DBB21A00FB1D1B789A4213D1C0
:103EC000FB685B6C20221A43FB685A64FB68412242
:103ED00020219954FB68422200219954FB6840221A
:103EE0000021995401230FE0FB681B689B69BA68A5
:103EF0001340BA68D31A5A425341DBB21A00FB1D71
:103F00001B789A42BFD000231800BD4604B080BD84
:103F100080B584B000AFF860B9607A6032E07A684A
:103F2000B968FB68180000F07DF8031E01D001237A
:103F300030E0BB68013325D0FFF7DEF902007B6873
:103F4000D31ABA689A4202D3BB68002B1AD1FB6815
:103F50001B689B6902221340022B13D0FB685B6C29
:103F600020221A43FB685A64FB684122202199549D
:103F7000FB68422200219954FB6840220021995499
:103F8000012307E0FB681B689B6902221340022B98
:103F9000C5D100231800BD4604B080BD80B584B0F3
:103FA00000AFF860B9607A602FE07A68B968FB68A2
:103FB000180000F037F8031E01D001232DE0FFF7B1
:103FC0009BF902007B68D31ABA689A4202D3BB6895
:103FD000002B1AD1FB681B689B6920221340202B01
:103FE00013D0FB685B6C20221A43FB685A64FB68A1
:103FF000412220219954FB68422200219954FB68F8
:10400000402200219954012307E0FB681B689B694B
:1040100020221340202BC8D100231800BD4604B035
:1040200080BD000090B58BB000AFF860B9607A60D9
:104030002723FB1800221A70FB681B689B69BB6171
:1040400000233B627B68FB61BB691022134000D1F7
:1040500082E0FB681B681022DA6160E027243B19CC
:104060003A1912781A70BB68013358D0FFF744F937
:104070000200FB69D31ABA689A4206D33B193A196F
:1040800012781A70BB68002B49D1FB681B685A680C
:104090008023DB0113407B6113203B18FA68422127
:1040A000525C1A70FB681B689A6980231B021A40D5
:1040B00080231B029A4226D17A698023DB019A422F
:1040C00021D03B181B78202B1DD0FB681B685A6839
:1040D000FB681B688021C9010A435A60FFF70CF98D
:1040E0000300FB610FE0FFF707F90200FB69D31A39
:1040F000192B08D93B6A202213433B622723FB1864
:1041000001221A700BE0FB681B689B692022134098
:1041100027217A18791809781170202BE3D1FB68D0
:104120001B689B6920221340202B04D02723FB18F7
:104130001B78002B92D02723FB181B78002B03D170
:10414000FB681B682022DA613B6A042213433B624E
:104150002723FB1801221A70FB681B689B69BB614F
:10416000BA6980235B0013400CD03B6A01221343E1
:104170003B62FB681B6880225200DA612723FB1830
:1041800001221A70BA698023DB0013400CD03B6A0D
:10419000082213433B62FB681B688022D200DA616D
:1041A0002723FB1801221A70BA6980239B00134051
:1041B0000CD03B6A022213433B62FB681B688022DF
:1041C0009200DA612723FB1801221A702723FB18BB
:1041D0001B78002B1DD0FB681800FFF729FEFB6839
:1041E0001B685A68FB681B680D490A405A60FB68E7
:1041F0005A6C3B6A1A43FB685A64FB6841222021CF
:104200009954FB68422200219954FB684022002106
:1042100099542723FB181B781800BD460BB090BD9E
:1042200000E800FE90B587B000AFF860080011000C
:104230007B600A243B19021C1A8009203B180A1CC7
:104240001A703B191B889B059A0D3B181B781904A3
:10425000FF231B040B401A437B681A43BB6A1343BA
:104260005B005B087B61FB681B685B68BA6A510D89
:104270008022D2000A4007490A43D2431A40110063
:10428000FB681B687A690A435A60C046BD4607B09E
:1042900090BDC046FF63FF0380B582B000AF786079
:1042A00039607B6841229B5CDBB2202B38D17B6874
:1042B00040229B5C012B01D1022332E07B6840222B
:1042C000012199547B684122242199547B681B6801
:1042D0001A687B681B6801218A431A607B681B6827
:1042E0001A687B681B6811490A401A607B681B6862
:1042F00019687B681B683A680A431A607B681B6808
:104300001A687B681B6801210A431A607B68412296
:10431000202199547B68402200219954002300E019
:1043200002231800BD4602B080BDC046FFEFFFFF6C
:1043300080B584B000AF786039607B6841229B5CB7
:10434000DBB2202B39D17B6840229B5C012B01D151
:10435000022333E07B684022012199547B6841228B
:10436000242199547B681B681A687B681B680121AB
:104370008A431A607B681B681B68FB60FB68114AF4
:104380001340FB603B681B02FA681343FB607B68C9
:104390001B68FA681A607B681B681A687B681B6870
:1043A00001210A431A607B684122202199547B68CD
:1043B000402200219954002300E002231800BD464A
:1043C00004B080BDFFF0FFFFF0B58BB006AF7860A2
:1043D0007B68002B01D10123F0E07B68794A9B5C6C
:1043E000DBB2002B08D17A68AA239B000021D154AC
:1043F0007B681800FEF7A8FE7B68724A0321995477
:104400007B681B68180002F023F80F23FB180022BA
:104410001A7049E00F203B181B7879685A1C13006A
:104420009B009B18DB00CB18013301221A703B184C
:104430001B7879685A1C13009B009B18DB003A1804
:1044400012785A543B181B7879685A1C13009B0049
:104450009B18DB00CB18033300221A703B181A7824
:10446000796813009B009B18DB00CB1838330022BF
:104470001A603B181A78796813009B009B18DB00C0
:10448000CB183C3300221A603B181A787968130065
:104490009B009B18DB00CB18403300221A603B18AE
:1044A0001A783B1801321A700F217B181A787B6832
:1044B0005B689A42AED37B1800221A7056E00F2434
:1044C0003B191A7878686A23FF33190013009B00A0
:1044D0009B18DB00C3185B1800221A703B191A786E
:1044E0007868B423590013009B009B18DB00C318A5
:1044F0005B183A1912781A703B191A7878686C238D
:10450000FF33190013009B009B18DB00C3185B18D6
:1045100000221A703B191A787868BC2359001300DE
:104520009B009B18DB00C3185B1800221A603B1924
:104530001A787868BE23590013009B009B18DB0093
:10454000C3185B1800221A603B191A787868C023D8
:10455000590013009B009B18DB00C3185B18002256
:104560001A603B191A783B1901321A700F23FB1895
:104570001A787B685B689A42A1D37B6818687B686D
:104580006A4611001A00103270CA70C130CA30C1B8
:1045900059689A68DB6801F075FF7B682422002166
:1045A00099547B68074A012199547B68DB69012B88
:1045B00003D17B68180000F007F800231800BD46FF
:1045C00005B0F0BDA902000080B584B000AF7860EE
:1045D0007B681B68FB607A68BA239B000121D1507D
:1045E0007A68B8239B000021D154FB6854229B5A5F
:1045F0009BB20122134399B2FB6854229952FB6883
:1046000054229B5A9BB20222134399B2FB68542254
:10461000995200231800BD4604B080BD80B588B013
:1046200000AF78607B68002B02D1012300F076FB9D
:104630007B681B680122134000D18EE0C54B5B688C
:104640000C221340042B0ED0C24B5B680C2213408B
:10465000082B17D1BF4B5A68C0235B021A40802336
:104660005B029A420ED1BB4B1A6880239B02134017
:1046700000D171E07B685B68002B00D06CE0012307
:1046800000F04CFB7B685B68012B07D1B14B1A68CB
:10469000B04B802149020A431A602FE07B685B68B7
:1046A000002B0CD1AB4B1A68AA4BAB490A401A60DD
:1046B000A84B1A68A74BA9490A401A601EE07B68FC
:1046C0005B68052B0ED1A34B1A68A24B8021C9024F
:1046D0000A431A609F4B1A689E4B802149020A4385
:1046E0001A600BE09B4B1A689A4B9B490A401A6070
:1046F000984B1A68974B99490A401A607B685B6827
:10470000002B14D0FEF7F8FD0300BB6108E0FEF7B4
:10471000F3FD0200BB69D31A642B01D90323FDE228
:104720008C4B1A6880239B021340F0D015E0FEF7F3
:10473000E3FD0300BB6108E0FEF7DEFD0200BB699C
:10474000D31A642B01D90323E8E2824B1A68802331
:104750009B021340F0D100E0C0467B681B68022238
:10476000134000D16CE07B4B5B680C2213400ED0F1
:10477000784B5B680C221340082B1FD1754B5A688D
:10478000C0235B021A4080231B029A4216D1714B50
:104790001B680222134005D07B68DB68012B01D027
:1047A0000123BBE26B4B1B68F822934319007B6823
:1047B0001B69DA00674B0A431A6041E07B68DB68DB
:1047C000002B24D0634B1A68624B01210A431A6004
:1047D000FEF792FD0300BB6108E0FEF78DFD0200CD
:1047E000BB69D31A022B01D9032397E2594B1B68EB
:1047F00002221340F1D0574B1B68F8229343190053
:104800007B681B69DA00534B0A431A6018E0514B6E
:104810001A68504B01218A431A60FEF76DFD0300B0
:10482000BB6108E0FEF768FD0200BB69D31A022BEA
:1048300001D9032372E2474B1B6802221340F1D1D6
:104840007B681B680822134036D07B68DB69002B2D
:1048500019D0404B5A6A3F4B01210A435A62FEF776
:104860004BFD0300BB6108E0FEF746FD0200BB699B
:10487000D31A022B01D9032350E2364B5B6A022282
:104880001340F1D018E0334B5A6A324B01218A436E
:104890005A62FEF731FD0300BB6108E0FEF72CFD14
:1048A0000200BB69D31A022B01D9032336E2294B3C
:1048B0005B6A02221340F1D17B681B68042213401B
:1048C00000D1B5E01F203B1800221A70214BDA6995
:1048D00080235B05134010D11E4BDA691D4B8021EC
:1048E00049050A43DA611B4BDA6980235B051340F3
:1048F000FB60FB683B1801221A70194B1A68802371
:104900005B0013401AD1164B1A68154B80214900E1
:104910000A431A60FEF7F0FC0300BB6108E0FEF7F3
:10492000EBFC0200BB69D31A642B01D90323F5E128
:104930000B4B1A6880235B001340F0D07B689B68A8
:10494000012B0FD1034B1A6A024B01210A431A6251
:1049500036E0C04600100240FFFFFEFFFFFFFBFFF6
:10496000007000407B689B68002B0CD1CA4B1A6A10
:10497000C94B01218A431A62C74B1A6AC64B0421EC
:104980008A431A621CE07B689B68052B0CD1C24BE2
:104990001A6AC14B04210A431A62BF4B1A6ABE4B02
:1049A00001210A431A620BE0BB4B1A6ABA4B012180
:1049B0008A431A62B84B1A6AB74B04218A431A62B7
:1049C0007B689B68002B14D0FEF796FC0300BB614C
:1049D00009E0FEF791FC0200BB69D31AAF4A93428B
:1049E00001D903239AE1AC4B1B6A02221340F0D099
:1049F00013E0FEF781FC0300BB6109E0FEF77CFCDD
:104A00000200BB69D31AA54A934201D9032385E169
:104A1000A14B1B6A02221340F0D11F23FB181B7805
:104A2000012B05D19C4BDA699B4B9D490A40DA6109
:104A30007B681B681022134063D07B685B69012B85
:104A40002AD1954B5A6B944B04210A435A63924BDB
:104A50005A6B914B01210A435A63FEF74DFC030048
:104A6000BB6108E0FEF748FC0200BB69D31A022BC9
:104A700001D9032352E1884B5B6B02221340F1D032
:104A8000854B5B6BF822934319007B689B69DA00C6
:104A9000814B0A435A6334E07B685B69053311D16B
:104AA0007D4B5A6B7C4B04218A435A637A4B5B6B78
:104AB000F822934319007B689B69DA00764B0A431E
:104AC0005A631EE0744B5A6B734B04210A435A63BA
:104AD000714B5A6B704B01218A435A63FEF70CFCF1
:104AE0000300BB6108E0FEF707FC0200BB69D31AB4
:104AF000022B01D9032311E1674B5B6B02221340A8
:104B0000F1D17B681B68202213405CD0624B5B684C
:104B10000C2213400C2B0ED05F4B5B680C22134011
:104B2000082B14D15C4B5A68C0235B021A40C02387
:104B30005B029A420BD1584B5A6B80239B02134065
:104B400040D07B681B6A012B3CD00123E6E07B68E8
:104B50001B6A002B1BD0504B5A6B4F4B80214902D4
:104B60000A435A63FEF7C8FB0300BB6108E0FEF787
:104B7000C3FB0200BB69D31A022B01D90323CDE08A
:104B8000454B5A6B80239B021340F0D01BE0424BF5
:104B90005A6B414B43490A405A63FEF7ADFB030091
:104BA000BB6108E0FEF7A8FB0200BB69D31A022B29
:104BB00001D90323B2E0384B5A6B80239B02134088
:104BC000F0D100E0C0467B685B6A002B00D1A4E016
:104BD000314B5B680C221340082B00D178E07B68D6
:104BE0005B6A022B4CD12C4B1A682B4B2E490A4086
:104BF0001A60FEF781FB0300BB6108E0FEF77CFB57
:104C00000200BB69D31A022B01D9032386E0224B91
:104C10001A6880239B041340F0D11F4BDB6A0F22DC
:104C2000934319007B681A6B1B4B0A43DA621A4BD9
:104C30005B681E4A134019007B68DA6A7B689B6ACE
:104C40001A43154B0A435A60134B1A68124B8021C2
:104C500049040A431A60FEF74FFB0300BB6108E0FA
:104C6000FEF74AFB0200BB69D31A022B01D90323CA
:104C700054E0094B1A6880239B041340F0D04CE0A9
:104C8000054B1A68044B08490A401A60FEF734FBCA
:104C90000300BB6115E0C04600100240881300000D
:104CA000FFFFFFEFFFFFFEFFFFFFFFFEFF7FC2FFE3
:104CB000FEF722FB0200BB69D31A022B01D90323A2
:104CC0002CE0184B1A6880239B041340F0D124E099
:104CD0007B685B6A012B01D101231FE0114B5B68EC
:104CE0007B61104BDB6A3B617A69C0235B021A402F
:104CF0007B689B6A9A420ED13B690F221A407B68FF
:104D00001B6B9A4207D17A69F0239B031A407B6898
:104D1000DB6A9A4201D0012300E000231800BD465F
:104D200008B080BD0010024080B584B000AF78604C
:104D300039607B68002B01D10123BFE0614B1B6808
:104D4000012213403A689A4211D95E4B1B68012236
:104D5000934319005B4B3A680A431A60594B1B682E
:104D6000012213403A689A4201D00123A6E07B68F1
:104D70001B680222134015D07B681B680422134075
:104D800006D0514B5A68504BE021C9000A435A6083
:104D90004D4B5B68F022934319007B689A684A4B3D
:104DA0000A435A607B681B68012213404CD07B6821
:104DB0005B68012B07D1444B1A6880239B02134088
:104DC00020D101237AE07B685B68022B07D13E4B40
:104DD0001A6880239B04134014D101236EE07B6882
:104DE0005B68032B07D1384B5A6B80239B0213401F
:104DF00008D1012362E0344B1B680222134001D129
:104E000001235BE0304B5B680322934319007B680E
:104E10005A682D4B0A435A60FEF76EFA0300FB6096
:104E200009E0FEF769FA0200FB68D31A274A9342A9
:104E300001D9032342E0244B5B680C221A407B68B3
:104E40005B689B009A42ECD11E4B1B680122134009
:104E50003A689A4211D21B4B1B68012293431900F6
:104E6000184B3A680A431A60164B1B68012213401C
:104E70003A689A4201D0012320E07B681B68042233
:104E8000134009D0104B5B68114A134019007B682E
:104E9000DA680D4B0A435A6000F020F801000A4B13
:104EA0005B681B090F2213400A4AD35C0A00DA40F0
:104EB000094B1A600320FEF7D9F900231800BD46FC
:104EC00004B080BD002002400010024088130000A2
:104ED000FFF8FFFFC86600080000002080B586B01C
:104EE00000AF0023FB600023BB6000237B61002335
:104EF0007B6000233B612D4B5B68FB60FB680C22F1
:104F000013400C2B46D048D8042B02D0082B03D0DA
:104F100043E0274B3B6143E0FB689B0C0F221340AF
:104F2000244AD35C7B60214BDB6A0F221340224A68
:104F3000D35CBB60FA68C0235B021A4080235B022B
:104F40009A4209D1B9681A48FBF7DEF803001A0043
:104F50007B6853437B611AE0FA68C0235B021A4006
:104F6000C0235B029A4209D1B9681448FBF7CCF818
:104F700003001A007B6853437B6108E0B9680C4862
:104F8000FBF7C2F803001A007B6853437B617B691F
:104F90003B6105E0094B3B6102E0054B3B61C046CC
:104FA0003B691800BD4606B080BDC04600100240F7
:104FB00000127A00E0660008F0660008006CDC026F
:104FC00080B500AF024B1B681800BD4680BDC046CF
:104FD0000000002080B500AFFFF7F2FF0100064B94
:104FE0005B681B0A07221340044AD35CD9400B00BC
:104FF0001800BD4680BDC04600100240D8660008BB
:1050000080B586B000AF786000233B610023FB6071
:105010007B681A6880235B02134000D18EE0172062
:105020003B1800221A70674BDA6980235B05134036
:1050300010D1644BDA69634B802149050A43DA6178
:10504000604BDA6980235B051340BB60BB683B188B
:1050500001221A705C4B1A6880235B0013401AD13E
:10506000594B1A68584B802149000A431A60FEF7D1
:1050700043F903003B6108E0FEF73EF902003B699B
:10508000D31A642B01D9032397E04F4B1A6880236E
:105090005B001340F0D04B4B1A6AC0239B001340B7
:1050A000FB60FB68002B34D07B685A68C0239B00F0
:1050B0001340FA689A422CD0424B1B6A434A134071
:1050C000FB60404B1A6A3F4B802149020A431A6237
:1050D0003C4B1A6A3B4B3E490A401A62394BFA680C
:1050E0001A62FB680122134013D0FEF705F9030092
:1050F0003B6109E0FEF700F902003B69D31A354A2B
:10510000934201D9032358E02E4B1B6A022213401D
:10511000F0D02C4B1B6A2D4A134019007B685A684B
:10512000284B0A431A621723FB181B78012B05D161
:10513000244BDA69234B28490A40DA617B681B68F3
:105140000122134009D01F4B1B6B0322934319000C
:105150007B689A681B4B0A431A637B681B68202292
:10516000134009D0174B1B6B1022934319007B6827
:10517000DA68144B0A431A637B681A6880239B021F
:10518000134009D00F4B1B6B8022934319007B689F
:105190005A690C4B0A431A637B681A688023DB0048
:1051A000134009D0074B1B6B4022934319007B68C7
:1051B0001A69044B0A431A6300231800BD4606B05F
:1051C00080BDC0460010024000700040FFFCFFFFA1
:1051D000FFFFFEFF88130000FFFFFFEF80B584B0E4
:1051E00000AF78607B68002B01D10123A8E07B68C9
:1051F0005B6A002B09D17B685A6882235B009A4264
:1052000009D07B680022DA6105E07B6800221A6120
:105210007B6800225A617B6800229A627B685D226B
:105220009B5CDBB2002B07D17B685C220021995488
:105230007B681800FDF798FE7B685D220221995477
:105240007B681B681A687B681B6840218A431A6068
:105250007B68DA68E023DB009A4202D90023FB6016
:1052600002E080235B01FB607B68DA68F0231B01AE
:105270009A4208D07B68DA68E023DB009A4202D0C9
:105280007B6800229A627B685A6882235B001A401E
:105290007B68996884231B020B401A437B681B6957
:1052A00002210B401A437B685B6901210B401A43C2
:1052B0007B68996980239B000B401A437B68DB69FC
:1052C00038210B401A437B681B6A80210B401A432C
:1052D00011007B689A6A80239B011A407B681B68D7
:1052E0000A431A607B689B691B0C04221A407B6886
:1052F0005B6A10210B401A437B685B6B08210B40F3
:105300001A437B68D968F0231B010B401A43110034
:10531000FA6880235B011A407B681B680A435A6065
:105320007B681B68DA697B681B6807490A40DA6199
:105330007B6800221A667B685D2201219954002354
:105340001800BD4604B080BDFFF7FFFF80B588B0F0
:1053500000AFF860B9603B60BB1D1A801F23FB18CB
:1053600000221A70FB685C229B5C012B01D1022396
:1053700047E1FB685C2201219954FDF7BDFF030062
:10538000BB611623FB18BA1D12881A80FB685D22C8
:105390009B5CDBB2012B04D01F23FB1802221A7086
:1053A00028E1BB68002B03D0BB1D1B88002B04D158
:1053B0001F23FB1801221A701CE1FB685D220321E8
:1053C0009954FB6800221A66FB68BA689A63FB6806
:1053D000BA1D12889A87FB68BA1D1288DA87FB68A3
:1053E00000221A64FB68442200219952FB6846227D
:1053F00000219952FB6800221A65FB680022DA64DA
:10540000FB689A6880231B029A4210D1FB681B68D4
:105410001A68FB681B6840218A431A60FB681B6896
:105420001A68FB681B688021C9010A431A60FB687F
:105430001B681B6840221340402B07D0FB681B6889
:105440001A68FB681B6840210A431A60FB68DA6827
:10545000E023DB009A4252D9FB685B68002B04D042
:105460001623FB181B88012B43D1FB689B6B1A8802
:10547000FB681B68DA60FB689B6B9A1CFB689A638D
:10548000FB68DB8F9BB2013B9AB2FB68DA8730E0A6
:10549000FB681B689B6802221340022B12D1FB6839
:1054A0009B6B1A88FB681B68DA60FB689B6B9A1C15
:1054B000FB689A63FB68DB8F9BB2013B9AB2FB6887
:1054C000DA8716E0FDF718FF0200BB69D31A3A68C5
:1054D0009A4202D83B68013302D13B68002B08D1C5
:1054E0001F23FB1803221A70FB685D2201219954C7
:1054F00080E0FB68DB8F9BB2002BC9D153E0FB68D7
:105500005B68002B04D01623FB181B88012B45D1A8
:10551000FB689A6BFB681B680C3312781A70FB6887
:105520009B6B5A1CFB689A63FB68DB8F9BB2013B49
:105530009AB2FB68DA8731E0FB681B689B6802223D
:105540001340022B13D1FB689A6BFB681B680C336A
:1055500012781A70FB689B6B5A1CFB689A63FB6895
:10556000DB8F9BB2013B9AB2FB68DA8716E0FDF74E
:10557000C3FE0200BB69D31A3A689A4202D83B685C
:10558000013302D13B68002B08D11F23FB180322F3
:105590001A70FB685D22012199542BE0FB68DB8FB8
:1055A0009BB2002BC8D1BA693968FB68180000F0BB
:1055B0004BFB031E02D0FB6820221A66FB689B6827
:1055C000002B0AD100233B61FB681B68DB683B6151
:1055D000FB681B689B683B613B69FB681B6E002B8B
:1055E00004D01F23FB1801221A7003E0FB685D2220
:1055F00001219954FB685C22002199541F23FB1858
:105600001B781800BD4608B080BD000080B58AB088
:1056100000AFF860B9607A601A00BB1C1A800123E1
:105620007B622323FB1800221A70FB685C229B5CC0
:10563000012B01D10223C4E1FB685C2201219954B2
:10564000FDF75AFE0300FB611B203B18FA685D2141
:10565000525C1A70FB685B687B611223FB18BA1CF2
:1056600012881A803B181B78012B11D07A6982238B
:105670005B009A4207D1FB689B68002B03D13B1863
:105680001B78042B04D02323FB1802221A7091E10B
:10569000BB68002B06D07B68002B03D0BB1C1B888B
:1056A000002B04D12323FB1801221A7082E1FB682E
:1056B0005D229B5CDBB2042B03D0FB685D220521DD
:1056C0009954FB6800221A66FB687A681A64FB68C2
:1056D000BA1C462112885A52FB68BA1C442112880F
:1056E0005A52FB68BA689A63FB68BA1C1288DA8758
:1056F000FB68BA1C12889A87FB680022DA64FB6890
:1057000000221A65FB68DA68E023DB009A4208D9B8
:10571000FB681B685A68FB681B68AC490A405A6002
:1057200008E0FB681B685A68FB681B688021490118
:105730000A435A60FB681B681B6840221340402BD9
:1057400007D0FB681B681A68FB681B6840210A4386
:105750001A60FB68DA68E023DB009A4200D883E035
:10576000FB685B68002B05D01223FB181B88012BFC
:1057700000D06DE0FB689B6B1A88FB681B68DA60E1
:10578000FB689B6B9A1CFB689A63FB68DB8F9BB280
:10579000013B9AB2FB68DA875AE0FB681B689B689A
:1057A00002221340022B1BD1FB68DB8F9BB2002B24
:1057B00016D07B6A012B13D1FB689B6B1A88FB68A0
:1057C0001B68DA60FB689B6B9A1CFB689A63FB683A
:1057D000DB8F9BB2013B9AB2FB68DA8700237B62C6
:1057E000FB681B689B6801221340012B1CD1FB68DE
:1057F00046229B5A9BB2002B16D0FB681B68DA68C6
:10580000FB681B6C92B21A80FB681B6C9A1CFB68CD
:105810001A64FB6846229B5A9BB2013B99B2FB6813
:105820004622995201237B62FDF766FD0200FB6967
:10583000D31A3A6B9A420BD83B6B013308D023231F
:10584000FB1803221A70FB685D2201219954B1E014
:10585000FB68DB8F9BB2002B9FD1FB6846229B5AD3
:105860009BB2002B99D189E0FB685B68002B05D0C7
:105870001223FB181B88012B00D074E0FB689A6B85
:10588000FB681B680C3312781A70FB689B6B5A1C00
:10589000FB689A63FB68DB8F9BB2013B9AB2FB68A3
:1058A000DA8760E0FB681B689B6802221340022BCA
:1058B0001CD1FB68DB8F9BB2002B17D07B6A012BBE
:1058C00014D1FB689A6BFB681B680C3312781A7052
:1058D000FB689B6B5A1CFB689A63FB68DB8F9BB26F
:1058E000013B9AB2FB68DA8700237B62FB681B6886
:1058F0009B6801221340012B1ED1FB6846229B5A54
:105900009BB2002B18D0FB681B680C331A00FB6895
:105910001B6C1278D2B21A70FB681B6C5A1CFB68A5
:105920001A64FB6846229B5A9BB2013B99B2FB6802
:105930004622995201237B62FDF7DEFC0200FB69DF
:10594000D31A3A6B9A4202D83B6B013302D13B6BBC
:10595000002B08D12323FB1803221A70FB685D2259
:105960000121995426E0FB68DB8F9BB2002B99D173
:10597000FB6846229B5A9BB2002B93D1FA69396B84
:10598000FB68180000F060F9031E06D02323FB1803
:1059900001221A70FB6820221A66FB681B6E002B1E
:1059A00004D02323FB1801221A7003E0FB685D2258
:1059B00001219954FB685C22002199542323FB1890
:1059C0001B781800BD460AB080BDC046FFEFFFFF40
:1059D00080B582B000AF78607B685D229B5CDBB2F3
:1059E0001800BD4602B080BD80B588B000AFF86039
:1059F000B9603B60FB1D1A70FDF77EFC0200BB6ABC
:105A00009B1A3A68D318FB61FDF776FC0300BB6173
:105A10003A4B1B685B011B0DFA6953437B6158E0ED
:105A20003B68013355D0FDF767FC0200BB69D31A10
:105A3000FA699A4202D9FB69002B42D1FB681B68C4
:105A40005A68FB681B68E0218A435A60FB685A6801
:105A500082235B009A4213D1FB689A6880231B0261
:105A60009A4205D0FB689A688023DB009A4207D1EE
:105A7000FB681B681A68FB681B6840218A431A6030
:105A8000FB689A6A80239B019A4210D1FB681B68CD
:105A90001A68FB681B681A490A401A60FB681B6891
:105AA0001A68FB681B68802189010A431A60FB6839
:105AB0005D2201219954FB685C2200219954032343
:105AC00017E07B69002B01D10023FB617B69013B5F
:105AD0007B61FB681B689B68BA681340BA68D31A7D
